:020000022000DC
:10300000000001209F32020045320200D93A02003E
:10301000493202004B3202004D3202000000000033
:10302000000000000000000000000000E5A9020010
:10303000513202000000000009AA020055320200CD
:10304000FD6602005932020071630200C57402007D
:10305000AD50020061320200B54502006532020047
:1030600067320200693202006B3202006D320200E8
:103070006F320200713202007332020075320200B8
:1030800077320200EDA802007B3202007D3202009E
:103090007F32020081320200297C02008532020068
:1030A00087320200893202008B3202008D32020028
:1030B0008F32020091320200000000000000000088
:1030C00093320200953202009732020099320200D8
:0830D0009B3202009D32020058
:1030D800374938480A1A02D0072291438D463649A3
:1030E80036480A1A06D00722914381F3098802223A
:1030F80082F3148832483349334A00F048F8334899
:103108003349344A00F043F833483449344A00F02C
:103118003EF834483449354A00F039F834483549DE
:10312800354A00F034F835483549364A00F02FF86A
:1031380035483649364A00F02AF836483649374A7B
:1031480000F025F836483749002200F02BF83648B9
:103158003649002200F026F835483649091A082968
:1031680003DB0022026004300160224822498842C1
:1031780005D00268043003B4904703BCF7E7002089
:103188008646EC46002000212B4A9047FEE78842FD
:1031980007D0521A05D0037801300B700131013A7B
:1031A800F9D17047884202D002700130FAE77047BF
:1031B8000000012000F8002000000120000001208C
:1031C800D8C70200002000202020002070C4020080
:1031D8000020002000200020B0320200B03202009F
:1031E80040C40200D8C702000020002000200020B0
:1031F80070C4020070C4020070C4020070C40200EF
:1032080070C4020070C4020070C4020070C40200DE
:10321800D8C70200F8C70200202000202020002084
:1032280020200020F0360020F0360020F436002060
:10323800F4360020F43A0020793A0200FEE7FEE76F
:10324800FEE7FEE7FEE7FEE7FEE7FEE7FEE7FEE74E
:10325800FEE7FEE7FEE7FEE7FEE7FEE7FEE7FEE73E
:10326800FEE7FEE7FEE7FEE7FEE7FEE7FEE7FEE72E
:10327800FEE7FEE7FEE7FEE7FEE7FEE7FEE7FEE71E
:10328800FEE7FEE7FEE7FEE7FEE7FEE7FEE7FEE70E
:10329800FEE7FEE7FEE70348854600F02BF8FFF758
:0832A80017BF70470000012070
:1032B00000487047E836002070477047BFF34F8FD3
:1032C00000BF074BDB6803F4E0620549054B13437D
:1032D000CB60BFF34F8F00BF00BF00BFFCE700BF54
:1032E00000ED00E00400FA05024B034A1A6000BF3B
:1032F000704700BF002000200090D00308B500F008
:103300005DF90346002B06D09B4B1B681B0A9B4AAA
:1033100003F01F03136000F07DF90346002B02D079
:10332000974B984A1A6000F091F90346002B06D09B
:10333000954B1B685B0B954A03F00703136000F085
:10334000B1F90346002B05D0914BDB68904A23F07E
:103350008073D36000F0C2F90346002B0ED04FF00B
:1033600080430022C3F80C214FF080430022C3F8B1
:1033700010214FF080430022C3F8382500F0DAF91D
:103380000346002B02D0834B03221A6000F0EEF9B3
:103390000346002B0BD0804B05221A607F4B012285
:1033A0001A607F4B00221A607E4B3F221A6000F0A9
:1033B000F9F90346002B76D04FF080537A4AD3F8C0
:1033C0000434C2F820354FF08053774AD3F80834DC
:1033D000C2F824354FF08053734AD3F80C34C2F846
:1033E00028354FF08053704AD3F81034C2F82C358A
:1033F0004FF080536C4AD3F81434C2F830354FF094
:103400008053694AD3F81834C2F834354FF08053EA
:10341000654AD3F81C34C2F840354FF08053624AF5
:10342000D3F82034C2F844354FF080535E4AD3F8C5
:103430002434C2F848354FF080535B4AD3F828341F
:10344000C2F84C354FF08053574AD3F82C34C2F8A9
:1034500050354FF08053544AD3F83034C2F85435C5
:103460004FF08053504AD3F83434C2F860354FF0EF
:1034700080534D4AD3F83834C2F864354FF0805346
:10348000494AD3F83C34C2F868354FF08053464A75
:10349000D3F84034C2F86C354FF08053424AD3F829
:1034A0004434C2F8703500F099F90346002B05D07A
:1034B0003E4B1B683E4A03F04F03136000F0BAF91D
:1034C0000346002B0DD04FF08043D3F8003403F0B7
:1034D0000103002B05D04FF080436FF00102C3F8C9
:1034E0000024344BD3F88830324A43F47003C2F8D6
:1034F0008830BFF34F8F00BFBFF36F8F00BF4FF017
:103500001023D3F80032002B05DB4FF01023D3F843
:103510000432002B2BDA284B0122C3F8042500BF0C
:10352000254BD3F80034002BFAD04FF0102315228E
:10353000C3F8002200BF204BD3F80034002BFAD090
:103540004FF010231522C3F8042200BF1A4BD3F802
:103550000034002BFAD0184B0022C3F8042500BF1A
:10356000154BD3F80034002BFAD0FFF7A7FEFFF776
:10357000BBFE00BF08BD00BF240300104035014062
:1035800074C007400DF0ADBA440200103C05004085
:10359000F0ED00E0A00500401056004088560040C5
:1035A000185600401456004000C000405802001059
:1035B000E40E004000ED00E000E00140124B1B680B
:1035C000DBB2062B1DD1114B1B6803F00F03002B40
:1035D00017D10F4B1B6803F0F003302B01D10123EF
:1035E00010E00B4B1B6803F0F003402B01D10123CB
:1035F00008E0074B1B6803F0F003502B01D10123B7
:1036000000E0002318467047E00F00F0E40F00F0E0
:10361000E80F00F00A4B1B68DBB2062B0DD1094BFB
:103620001B6803F00F03002B07D1074B1B6803F047
:10363000F003302B01D1012300E00023184670472E
:10364000E00F00F0E40F00F0E80F00F0124B1B68F1
:10365000DBB2062B1DD1114B1B6803F00F03002BAF
:1036600017D10F4B1B6803F0F003302B01D101235E
:1036700010E00B4B1B6803F0F003402B01D101233A
:1036800008E0074B1B6803F0F003502B01D1012326
:1036900000E0002318467047E00F00F0E40F00F050
:1036A000E80F00F00A4B1B68DBB2062B0DD1094B6B
:1036B0001B6803F00F03002B07D1074B1B6803F0B7
:1036C000F003302B01D1012300E00023184670479E
:1036D000E00F00F0E40F00F0E80F00F0124B1B6861
:1036E000DBB2062B1DD1114B1B6803F00F03002B1F
:1036F00017D10F4B1B6803F0F003302B01D10123CE
:1037000010E00B4B1B6803F0F003402B01D10123A9
:1037100008E0074B1B6803F0F003502B01D1012395
:1037200000E0002318467047E00F00F0E40F00F0BF
:10373000E80F00F00A4B1B68DBB2062B0DD1094BDA
:103740001B6803F00F03002B07D1074B1B6803F026
:10375000F003302B01D1012300E00023184670470D
:10376000E00F00F0E40F00F0E80F00F00A4B1B68D8
:10377000DBB2062B0DD1094B1B6803F00F03002BA6
:1037800007D1074B1B6803F0F003302B01D1012355
:1037900000E0002318467047E00F00F0E40F00F04F
:1037A000E80F00F00A4B1B68DBB2062B0DD1094B6A
:1037B0001B6803F00F03002B07D1074B1B6803F0B6
:1037C000F003502B01D1012300E00023184670477D
:1037D000E00F00F0E40F00F0E80F00F0124B1B6860
:1037E000DBB2062B1DD1114B1B6803F00F03002B1E
:1037F00017D10F4B1B6803F0F003302B01D10123CD
:1038000010E00B4B1B6803F0F003402B01D10123A8
:1038100008E0074B1B6803F0F003502B01D1012394
:1038200000E0002318467047E00F00F0E40F00F0BE
:10383000E80F00F0124B1B68DBB2062B1DD1114BB9
:103840001B6803F00F03002B17D10F4B1B6803F00D
:10385000F003302B01D1012310E00B4B1B6803F068
:10386000F003402B01D1012308E0074B1B6803F054
:10387000F003502B01D1012300E0002318467047CC
:10388000E00F00F0E40F00F0E80F00F082B00190CC
:103890004FF0A043184602B0704700B585B00190C4
:1038A000084611461A4603468DF803300B468DF83C
:1038B000023013468DF8013001AB1846FFF7E6FFE2
:1038C00003909DF803209DF802305B001A439DF899
:1038D00001309B001A439DF818301B0242EA030195
:1038E0009DF81C301B04019A1943039B02F5E072FA
:1038F00043F8221000BF05B05DF804FB00B585B0A9
:1039000003900B468DF80B309DF80B30002201928E
:1039100000220092002200210398FFF7BEFF00BFA3
:1039200005B05DF804FB000084B00190244B0393C4
:10393000019B002B40D0234B1A680399019B00BFC9
:1039400000BF00BF00BF00BF00BF00BF00BF8A4272
:103950002FD000BF00BF00BF00BF00BF00BF00BF2F
:1039600000BF00BF00BF00BF00BF00BF00BF00BF5F
:1039700000BF00BF00BF00BF00BF00BF00BF00BF4F
:1039800000BF00BF00BF00BF00BF00BF00BF00BF3F
:1039900000BF00BF00BF00BF00BF00BF00BF00BF2F
:1039A00000BF00BF00BF00BF00BF00BF00BF00BF1F
:1039B00000BF013BC3D1019300BF04B0704700BFFB
:1039C0000024F4000020002000B583B00190019B8A
:1039D0004FF47A7202FB03F31846FFF7A5FF00BF0E
:1039E00003B05DF804FB08B507F074FA4FF47A7081
:1039F000FFF7EAFFF8E7000008B500211320FFF702
:103A00007DFF05F0DBF805F0EDF8012004F0A0F9EA
:103A10000346B3F1FF3F00D1FEE705F007F9064882
:103A200004F060FA44F2480004F0DEFB44F248007F
:103A300004F0EBFB00BF08BD0420002000B583B0FC
:103A400007F058F807F099F9094807F00BFD07F05F
:103A5000AEF903468DF807309DF807301946054842
:103A600007F0DEFC07F0FCF900BF03B05DF804FBD3
:103A700070C4020084C4020000B585B000F014F9DF
:103A8000002000F0D9F806F0F1FFFFF7D7FFFFF7AD
:103A9000B3FF00230393002302930B4B01930123F5
:103AA000009300234FF400720849094805F052FDC5
:103AB000084807F0D7FC002000F0D0F805F0F4FD2E
:103AC0000F2003F00BFDFBE720200020A4C4020020
:103AD000E7390200ACC4020010B582B0EFF30883EE
:103AE0001C4623460193019B1B6B009300990448DD
:103AF00007F096FC034807F0B5FC00BF02B010BD0C
:103B0000D0C40200F0C4020082B001904FF0A04384
:103B1000184602B0704700B585B0019008461146BE
:103B20001A4603468DF803300B468DF802301346D3
:103B30008DF8013001AB1846FFF7E6FF03909DF8C2
:103B400003209DF802305B001A439DF801309B0072
:103B50001A439DF818301B0242EA03019DF81C30FD
:103B60001B04019A1943039B02F5E07243F82210EB
:103B700000BF05B05DF804FB00B585B003900023DD
:103B80000193002300930023012201210398FFF7F2
:103B9000C2FF00BF05B05DF804FB00B585B0019021
:103BA00001AB1846FFF7B0FF0390019B012202FA18
:103BB00003F31946039800F02AF800BF05B05DF83A
:103BC00004FB00B585B0019001AB1846FFF79CFFE0
:103BD0000390019B012202FA03F31946039800F0B7
:103BE00020F800BF05B05DF804FB00B583B001907C
:103BF0000091009B002B03D10198FFF7E2FF02E048
:103C00000198FFF7CAFF00BF03B05DF804FB82B064
:103C100001900091019B009AC3F8082500BF02B0F3
:103C2000704782B001900091019B009AC3F80C2567
:103C300000BF02B07047000000B583B00190064A93
:103C4000019B13441B7800211846FFF7CEFF00BFED
:103C500003B05DF804FB00BFF4C4020000B583B0FC
:103C60000190064A019B13441B7801211846FFF777
:103C7000BCFF00BF03B05DF804FB00BFF4C402004A
:103C800000B583B00023019305E00198FFF7E6FF3C
:103C9000019B01330193019B032BF6D900BF00BFA9
:103CA00003B05DF804FB000000B583B0002301936E
:103CB00009E0094A019B13441B781846FFF75CFF93
:103CC000019B01330193019B032BF2D9FFF7D8FF2E
:103CD00000BF03B05DF804FBF4C4020082B00346E9
:103CE0008DF807309DF8073003F01F0205499DF954
:103CF00007305B09012000FA02F241F8232000BFDF
:103D000002B0704700E100E082B003468DF8073052
:103D10009DF8073003F01F0206499DF907305B0943
:103D2000012000FA02F2603341F8232000BF02B004
:103D3000704700BF00E100E082B0034600918DF8BB
:103D400007309DF90730002B0CDA009BDAB20C49E2
:103D50009DF8073003F00F03043B5201D2B20B442D
:103D60001A7609E0009BDAB206499DF90730520144
:103D7000D2B20B4483F8002300BF02B0704700BFEB
:103D800000ED00E000E100E000B583B003460A4624
:103D90008DF8073013468DF806309DF806209DF902
:103DA000073011461846FFF7C7FF9DF90730184640
:103DB000FFF7AAFF9DF907301846FFF78FFF00BFF6
:103DC00003B05DF804FB00B583B00346ADF80630E0
:103DD000BDF80630184600F026F803461B68012B94
:103DE0000CBF01230023DBB2184603B05DF804FBCF
:103DF00000B585B00346ADF80630BDF8063018466C
:103E000000F011F803461A4600231360BDF806308F
:103E1000184600F008F803461B680393039B00BF95
:103E200005B05DF804FB82B00346ADF80630BDF87E
:103E3000063003F1804303F5C043184602B07047D3
:103E400082B00190034A019BC2F8043300BF02B064
:103E5000704700BF0060004082B00190034BD3F870
:103E60000423019B1340184602B0704700600040D5
:103E700082B00190084A019B03F5A27352F82330E7
:103E8000054943F00102019B03F5A27341F8232089
:103E900000BF02B0704700BF0060004084B00390D4
:103EA000029113468DF80730144A039B03F5A27361
:103EB00052F82330114923F4473323F44073039A13
:103EC00002F5A27241F822300C4A039B03F5A2735B
:103ED00052F82320029B1B0203F4F8519DF807308F
:103EE0001B0403F440330B4304491A43039B03F5BB
:103EF000A27341F8232000BF04B070470060004067
:103F000082B00190054A019B03F5A27352F8233059
:103F10001B0A03F01F03184602B070470060004000
:103F200082B00190064A019B03F5A27352F8233038
:103F30001B0C03F00303DBB2184602B0704700BF4E
:103F40000060004082B001904FF0A043184602B0DC
:103F5000704700B585B00190084611461A460346E1
:103F60008DF803300B468DF8023013468DF8013082
:103F700001AB1846FFF7E6FF03909DF803209DF87C
:103F800002305B001A439DF801309B001A439DF8F4
:103F900018301B0242EA03019DF81C301B04019AF1
:103FA0001943039B02F5E07243F8221000BF05B0ED
:103FB0005DF804FB00B585B003900B468DF80B301F
:103FC0009DF80B3000220192002200920022002175
:103FD0000398FFF7BEFF00BF05B05DF804FB00B516
:103FE00085B0019001AB1846FFF7ACFF0390019A32
:103FF000039B02F5E07253F8223023F00203029390
:10400000019A039B02F5E072029943F8221000BF67
:1040100005B05DF804FB00B585B001900B468DF846
:10402000033001AB1846FFF78DFF0390019A039B05
:1040300002F5E07253F82230019A23F44031039BD9
:1040400002F5E07243F82210019A039B02F5E07238
:1040500053F822309DF8032012041146019A1943A7
:10406000039B02F5E07243F8221000BF05B05DF833
:1040700004FB00B585B0019001AB1846FFF762FF65
:104080000390039800F020F80246019B22FA03F304
:1040900003F00103184605B05DF804FB00B585B0D8
:1040A000019001AB1846FFF74DFF0390019A039B67
:1040B00002F5E07253F822301B0C03F00303DBB26D
:1040C000184605B05DF804FB82B00190019BD3F85F
:1040D0001035184602B0704700B587B003900291C2
:1040E00001924FF0A0430493039B059311E0059BBD
:1040F0009B0018336B4453F8083C1846FFF7E4FF65
:104100000246019B1A60019B04330193059B013316
:104110000593039A029B1344059A9A42E7D300BF82
:1041200000BF07B05DF804FB84B001900091009BD4
:104130000393019BDB080293019B03F007030193A8
:104140000122019B02FA03F30399029A0A441278AE
:104150001340184604B0704784B001900091009B52
:104160000393019BDB080293019B03F00703019378
:10417000039A029B13441B785AB20121019B01FA56
:1041800003F35BB2134359B2039A029B1344CAB2BE
:104190001A7000BF04B0704782B001900C4A019BB6
:1041A0001344303393F90030002B09DB084A019B9C
:1041B0001344303393F90030072B01DC012300E076
:1041C000002303F00103DBB2184602B0704700BFC2
:1041D0002420002082B00190064A019B1344303312
:1041E00093F90030072BCCBF01230023DBB2184624
:1041F00002B070472420002082B00190064A019B43
:104200001344303393F90030DB43DBB2DB09DBB21C
:10421000184602B0704700BF2420002084B00390ED
:10422000029101928DF80330029B59B20E4A039B12
:10423000134430330A461A700B49029B019A41F825
:1042400023209DF8033083F00103DBB2002B08D05C
:10425000029B083B039A51B2034A13440A4683F86F
:10426000502000BF04B070472420002082B001908D
:10427000044A019B13443033FF221A7000BF02B07E
:10428000704700BF2420002082B00190044A019BA7
:104290001344303393F90030184602B0704700BF22
:1042A0002420002082B00190034A019B52F8233061
:1042B000184602B0704700BF2420002000B589B026
:1042C0000390029113468DF80730FF238DF81F30BD
:1042D0009DF80730002B01D0002300E00823059350
:1042E0009DF80730002B01D0082300E00C23049335
:1042F000059B069314E00F4A069B52F82330B3F156
:10430000FF3F0AD19DF80730029A06990398FFF7FC
:1043100085FF069B8DF81F3006E0069B0133069350
:10432000069A049B9A42E6D39DF91F30184609B0BD
:104330005DF804FB2420002082B003468DF807308E
:104340009DF80730094A4FF0FF3142F823109DF8DD
:104350000730072B07D99DF80730083B034A134461
:10436000FF2283F8502000BF02B0704724200020B5
:1043700000B583B0214B93F85430002B03D00823B1
:104380000093009B36E000238DF8073009E09DF88C
:1043900007301846FFF76AFF9DF8073001338DF8A4
:1043A00007309DF807301F2BF1D900238DF8073017
:1043B00009E09DF807301846FFF7BEFF9DF807306B
:1043C00001338DF807309DF807300B2BF1D9072109
:1043D0000620FFF7D9FC4FF4BE70FFF709FD4FF040
:1043E0000040FFF72DFD054B012283F854200023E8
:1043F0000093009B184603B05DF804FB24200020C6
:10440000044B93F85430002B14BF01230023DBB27C
:10441000184670472420002000B587B00390029111
:104420000192002305930398FFF7E6FE0346002B55
:1044300002D00823059341E0029BDB781A460199DC
:104440000398FFF73BFF03468DF813309DF91330B7
:10445000B3F1FF3F30D0029B9B78002B03D0039831
:10446000FFF7BDFD05E0029B5B7819460398FFF757
:10447000A1FD029BDB78002B08D09DF91300029B65
:104480001B781A460399FFF709FD17E09DF91330D1
:10449000083B0D4A134493F95010029B1B789B0173
:1044A0005AB29DF91330083B0A4351B2064A1344ED
:1044B0000A4683F8502001E004230593059B184623
:1044C00007B05DF804FB00BF2420002000B589B0D0
:1044D00001900B468DF803300198FFF77BFE0346F1
:1044E000002B2FD00198FFF7CFFE0346083B304A40
:1044F000134493F950308DF80F309DF80F309B091D
:104500008DF80E309DF80E30032B0BD10198FFF77C
:10451000B0FD0346002B01D0032300E002238DF8F9
:104520001F3008E09DF80E30012B01D1022300E07E
:1045300003238DF81F309DF81F3019460198FFF7AF
:104540006AFD30E00198FFF727FE0346002B2AD0D2
:104550000198FFF799FE03460693069B9BB24033F2
:104560009BB29B00ADF81630069B1846FFF780FC07
:10457000BDF816301846FFF73BFC9DF80330002BC2
:1045800011D00198FFF780FE03461846FFF78AFE18
:104590000490049B002B06D00122069B02FA03F331
:1045A0001846FFF74DFC00BF09B05DF804FB00BFE3
:1045B0002420002000B595B000231393002303931B
:1045C0004FF48073ADF8463001231093002312930B
:1045D00021E0BDF846301846FFF7F5FB0346002BF7
:1045E0000ED01098FFF738FC0346002B08D0BDF81A
:1045F00046301846FFF7FCFB139A109B13431393A6
:10460000109B5B001093BDF846300433ADF8463084
:10461000129B01331293129B072BDAD94FF4BE7011
:10462000FFF7D1FB0346002B0DD04FF4BE70FFF710
:10463000DFFB139B43F00043139303AB1A460121A6
:104640000020FFF749FD139BDBB2002B29D001238B
:1046500010930023129321E0109A139B1340002B18
:1046600016D01298FFF74CFC0D901298FFF758FCEB
:1046700003468DF833301298FFF714FE0B900B9B16
:10468000002B05D09DF833200B9B11460D989847C1
:10469000109B5B001093129B01331293129B072B0C
:1046A000DAD9139B002B80F2EE8000238DF83B308B
:1046B0000023029300230F930AE00F9B9B005033CB
:1046C0006B444FF0FF3243F84C2C0F9B01330F9398
:1046D0000F9B002BF1D000238DF83B300023129369
:1046E00078E06B4A129B1344503393F900308DF8F5
:1046F0002B309DF82B3023F0C0030993644A129BA2
:104700001344503393F90030B3F1FF3F5FD001AB56
:1047100019460998FFF708FD0346002B57D09DF86E
:104720002B309B098DF823300998FFF7ADFD034628
:104730001846FFF7B7FD0790079B002B03D19DF8A4
:104740002330032B43D19DF82330032B04D102AB3C
:1047500019460998FFF700FD0998FFF79FFC0346EB
:104760008DF81B3003AB19460998FFF7DDFC059067
:10477000059B002B03D09DF81B30022B06D0059B18
:10478000002B24D19DF81B30032B20D19DF8233022
:10479000032B13D19DF81B30022B01D1032300E022
:1047A00002238DF813309DF8133019460998FFF74E
:1047B00032FC9DF83B3001338DF83B30079B002BDA
:1047C00005D09DF82320079B114609989847129B16
:1047D00001331293129B032B83D99DF83B30002B9E
:1047E0004CD001238DF83A306B461A460121002047
:1047F000FFF772FC00230F9314E00F9B9B005033D4
:104800006B4453F8502C0F9B9B0050336B4453F870
:10481000443C9A4203D000238DF83A3005E00F9BC8
:1048200001330F930F9B002BE7D09DF83A30002BFC
:1048300003D000238DF83B3020E000230F931AE0D3
:104840000F9B9B0050336B4453F8502C0F9B9B00E5
:1048500050336B4443F8442C0F9B9B0050336B4404
:1048600053F8482C0F9B9B0050336B4443F84C2C5F
:104870000F9B01330F930F9B002BE1D09DF83B3032
:10488000002B7FF428AF00BF15B05DF804FB00BF1C
:104890002420002082B003468DF807309DF80730B1
:1048A00003F01F0206499DF907305B09012000FA59
:1048B00002F2203341F8232000BF02B0704700BF4E
:1048C00000E100E084B001900B46ADF80230BDF885
:1048D0000230019A134400221A60BDF80230019A96
:1048E00013441B680393039B00BF04B0704782B05E
:1048F00001900B46ADF80230BDF80230019A134426
:104900001B68002B14BF01230023DBB2184602B042
:10491000704782B001900091019B009AC3F8042374
:1049200000BF02B0704782B001900091019B009AD5
:10493000C3F8082300BF02B0704782B00190019B0A
:104940000122C3F8002500BF02B0704782B0019079
:10495000019B0022C3F8002500BF02B0704784B05D
:104960000390029101920093039B029AC3F80825D9
:10497000039B019AC3F80C25039B009AC3F81025EA
:1049800000BF04B0704782B001900B468DF8033031
:104990009DF80320019BC3F81C2500BF02B070479F
:1049A00082B00190019BD3F81835DBB2184602B0F3
:1049B000704782B001900091009A019BC3F82425B2
:1049C00000BF02B0704784B001900B468DF80330F1
:1049D00013468DF802309DF80230002B14BF0123DE
:1049E0000023DBB203939DF80330032B10D0032B7D
:1049F00013DC012B02D0022B05D00EE0039B43F009
:104A0000020303930AE0039B43F00403039305E0CE
:104A1000039B43F00603039300E000BF019B039A4E
:104A2000C3F8542500BF04B0704700B583B00346F7
:104A30008DF807309DF907301846FFF72BFF00BFB0
:104A400003B05DF804FB82B001904FF0A04318461C
:104A500002B0704700B585B00190084611461A466D
:104A600003468DF803300B468DF8023013468DF85F
:104A7000013001AB1846FFF7E6FF03909DF80320D5
:104A80009DF802305B001A439DF801309B001A43E9
:104A90009DF818301B0242EA03019DF81C301B04EC
:104AA000019A1943039B02F5E07243F8221000BFFC
:104AB00005B05DF804FB00B585B0039000230193B9
:104AC000002300930023012201210398FFF7C2FF76
:104AD00000BF05B05DF804FB00B585B003900B4640
:104AE0008DF80B309DF80B300022019200220092CD
:104AF000002200210398FFF7ADFF00BF05B05DF86D
:104B000004FB00B585B0019001AB1846FFF79BFF91
:104B10000390019B012202FA03F31946039800F067
:104B200018F800BF05B05DF804FB00B585B0019032
:104B300001AB1846FFF787FF0390019B012202FAA1
:104B400003F31946039800F00EF800BF05B05DF8B6
:104B500004FB82B001900091019B009AC3F80825E4
:104B600000BF02B0704782B001900091019B009A93
:104B7000C3F80C2500BF02B07047000000B58DB02F
:104B80000590049103920293059B5B791A461346A4
:104B9000DB0013449B005A4A13440993099B1B7F73
:104BA000002B03D008230793079BA4E0099B039ADB
:104BB0001A60099B029A5A60049B1B7B012B05D843
:104BC000049B1B781846FFF7B0FF04E0049B1B789A
:104BD0001846FFF796FF049B1B78184600230193A5
:104BE00000230093002300220121FFF733FF049BE1
:104BF0005B78FF2B09D0049B5B780B930B98FFF736
:104C000094FF0B98FFF757FF02E04FF0FF330B9331
:104C1000049B9B78FF2B07D0049B9B780A93012170
:104C20000A98FFF759FF02E04FF0FF330A93049B05
:104C3000DB78FF2B09D0049BDB781846FFF761FF78
:104C4000049BDB781846FFF736FF059B5B79194616
:104C5000049BD8782A4A0B46DB000B449B00134484
:104C60001E3302461A70059B1B680893049B1B7831
:104C700019460A9B0B9A0898FFF771FE049B9B68E4
:104C800019460898FFF795FE049B197B049B5B7BF4
:104C90001A460898FFF797FE059B5B791946049B17
:104CA0005879174A0B46DB000B449B0013441F3313
:104CB00002461A70099B1B68002B03D00421089838
:104CC000FFF727FE0898FFF738FE099B1B68002BAB
:104CD00008D0059B93F90420049B1B7919461046C4
:104CE000FFF752F8099B00225A77099B01221A7795
:104CF00000230793079B18460DB05DF804FB00BF27
:104D00007C20002000B585B00190019B5B791A469C
:104D10001346DB0013449B00114A13440393039B87
:104D20001B68002B05D0019B93F904301846FFF750
:104D30007CFE019B1B680293039B1B68002B04D025
:104D40004FF0FF310298FFF7EEFD0298FFF7FEFDEE
:104D5000039B00221A7700BF05B05DF804FB00BF7B
:104D60007C20002000B589B0039002910093134687
:104D70008DF80730029B0493009B06939DF8073043
:104D80008DF814309DF828308DF81C3004AB0022CB
:104D90001946039800F00EF90346184609B05DF86D
:104DA00004FB00B583B00190019B9B7FFF2B04D0D7
:104DB000019B9B7F1846FFF7A4FE019B00225A77B8
:104DC000019B00221A72019B1B68019A02F10800E4
:104DD000019A52681146984700BF03B05DF804FB82
:104DE00000B585B0019000910198FFF7D9FD034609
:104DF0008DF80D30009B93F82020009B1B7E9A427B
:104E000009D2009B5B69009A92F8202013449DF818
:104E10000D20D2B21A70009B93F820300133DAB221
:104E2000009B83F82020009B93F820309BB2013335
:104E3000ADF80E30009B93F8213003F00403DBB291
:104E4000002B17D0009B1B7C9BB2BDF80E209A4212
:104E500004D2BDF80E30DAB2009B1A74009B1B7EA0
:104E60009BB2BDF80E209A4204D2BDF80E30DAB2E1
:104E7000009B1A76009B1B7C9BB2BDF80E209A42C9
:104E80000BD2009BDA68BDF80E3013441B7819462C
:104E90000198FFF778FD012322E0009B1B7E9BB267
:104EA000BDF80E209A4207D2009BDB7F194601987D
:104EB000FFF769FD012313E0009B93F82020009B7E
:104EC0001B7C9A4206D3009B93F82020009B1B7EFC
:104ED0009A4201D2012300E0002303F00103DBB278
:104EE000184605B05DF804FB00B585B0039002914B
:104EF0000192029B002283F8202004210398FFF7EF
:104F000012FD4FF484710398FFF7DCFC019B1B79C1
:104F1000002B03D0019B1B681B7801E0029BDB7F09
:104F200019460398FFF72FFD019B1B79012B08D928
:104F3000019B1B6801331B7819460398FFF723FD7B
:104F400009E0019B1B7B012B05D9029BDB7F1946E6
:104F50000398FFF718FD029B1B68002B04D0042167
:104F60000398FFF7D6FC20E000BF4FF4847103984C
:104F7000FFF7BDFC034683F00103DBB2002BF4D145
:104F80004FF484710398FFF79DFC02990398FFF793
:104F900027FF0346002BE7D1029B9B7FFF2B04D00A
:104FA000029B9B7F1846FFF7ACFD00BF05B05DF884
:104FB00004FB000010B586B0039002910192039BA0
:104FC0005B791A461346DB0013449B00294A1344BD
:104FD000049300230593049B5B7FDBB2002B03D07B
:104FE00011230593059B42E0049B1B68002B07D00F
:104FF000019B03F01403002B02D1049B01225A777A
:10500000049B029A03F10C0413460FCB84E80F00B3
:10501000049A92F821306FF3000382F82130049A49
:1050200092F821306FF3410382F82130049A92F80C
:1050300021306FF3820382F82130049B9B7FFF2B8A
:1050400004D0049B9B7F1846FFF76FFD019B002B4C
:1050500005D0049B00225A770623059306E0039BA4
:105060001B68029A04991846FFF73EFF059B1846F5
:1050700006B010BD7C20002000B583B001900091E7
:105080004FF484710198FFF71DFC00990198FFF718
:10509000A7FE034683F00103DBB2002B02D0009889
:1050A000FFF77FFE00BF03B05DF804FB00B583B0DF
:1050B000054B019301994FF04020FFF7DDFF00BF42
:1050C00003B05DF804FB00BF7C20002084B0019099
:1050D0000B46ADF80230BDF80230019A13440022AD
:1050E0001A60BDF80230019A13441B680393039BB6
:1050F00000BF04B0704782B001900B46ADF802309B
:10510000BDF80230019A13441B68002B14BF012321
:105110000023DBB2184602B0704782B001900091C4
:10512000019B009AC3F8042300BF02B0704782B00D
:1051300001900091019BD3F80423009B1340002BA6
:1051400014BF01230023DBB2184602B0704782B0BF
:1051500001900091019B009AC3F8082300BF02B0A0
:10516000704784B00190019BD3F880340393019B76
:10517000039AC3F88024039B184604B0704782B09A
:105180000190019B0422C3F8002500BF02B07047C4
:1051900084B0039002910192039B019AC3F81425F5
:1051A000039B029AC3F80C2500BF04B0704784B07B
:1051B000039002910192039B029AC3F80825039B76
:1051C000019AC3F8102500BF04B0704782B0019067
:1051D000019BD3F81835DBB2184602B0704782B095
:1051E00001900B468DF803309DF80320019BC3F816
:1051F0001C2500BF02B0704782B001900B468DF8AD
:1052000003309DF80330019A134401221A6000BF55
:1052100002B0704782B001900B468DF80330134600
:105220008DF802309DF803209DF802301343DBB265
:105230001A46019BC3F86C2500BF02B0704782B0CC
:1052400001900091019B009AC3F8242500BF02B091
:10525000704784B001900B46ADF80230BDF80230C3
:10526000019A134400221A60BDF80230019A1344D7
:105270001B680393039B00BF04B0704782B001908A
:105280000B46ADF80230BDF80230019A13441B689A
:10529000002B14BF01230023DBB2184602B0704775
:1052A00082B001900091019BD3F80022009B1A4329
:1052B000019BC3F8002200BF02B0704782B001908A
:1052C0000091019BD3F80022009BDB431A40019B15
:1052D000C3F8002200BF02B0704782B00190009175
:1052E000019B009AC3F8042300BF02B0704782B04C
:1052F00001900091019B009AC3F8082300BF02B0FF
:10530000704784B00190019BD3F880340393019BD4
:10531000039AC3F88024039B184604B0704782B0F8
:105320000190019B0822C3F8002500BF02B070471E
:1053300084B0039002910192039B029AC3F80C255A
:10534000039B019AC3F8142500BF04B0704784B0D2
:10535000039002910192039B029AC3F80825039BD4
:10536000019AC3F8102500BF04B0704782B00190C5
:105370000B468DF803309DF80330019A1344012247
:105380001A6000BF02B0704782B001900B468DF8E2
:10539000033013468DF802309DF803209DF802304B
:1053A0001343DBB21A46019BC3F86C2500BF02B061
:1053B000704782B001900091019B009AC3F82425A8
:1053C00000BF02B0704784B00390029113468DF87D
:1053D0000730029A039BC3F844259DF80720039BDE
:1053E000C3F8482500BF04B0704782B00190019B0C
:1053F000D3F84C35184602B0704784B00390029140
:1054000013468DF80730029A039BC3F834259DF8A4
:105410000720039BC3F8382500BF04B0704782B053
:105420000190019BD3F83C35184602B0704784B018
:105430000190019B1B0B8DF80F309DF90F30184622
:1054400004B0704782B00190019B03F06043B3F158
:10545000005F0CBF01230023DBB2184602B0704787
:1054600082B001904FF0A043184602B0704700B5DB
:1054700085B00190084611461A4603468DF8033060
:105480000B468DF8023013468DF8013001AB1846FB
:10549000FFF7E6FF03909DF803209DF802305B00C4
:1054A0001A439DF801309B001A439DF818301B02E7
:1054B00042EA03019DF81C301B04019A1943039B27
:1054C00002F5E07243F8221000BF05B05DF804FB5E
:1054D00000B585B0039000230193002300930023BF
:1054E000012201210398FFF7C2FF00BF05B05DF85C
:1054F00004FB00B585B003900B468DF80B309DF88A
:105500000B30002201920022009200220021039819
:10551000FFF7ADFF00BF05B05DF804FB00B585B037
:10552000019001AB1846FFF79BFF0390019B0122FE
:1055300002FA03F31946039800F004F800BF05B01F
:105540005DF804FB82B001900091019B009AC3F8C2
:10555000082500BF02B0704700B583B001900091EC
:10556000009B1B68B3F1FF3F09D0009B1B681846E6
:10557000FFF7D4FF009B1B681846FFF7A9FF009BAD
:105580005B68B3F1FF3F05D0009B5B6800211846C4
:10559000FFF7AFFF019B1B79464A5B0113441C33A5
:1055A0001B78002B41D0019B1A68009B9B69194610
:1055B0001046FFF7FEFE019B1868009B597D009B7B
:1055C0001B7D1A46FFF7E0FE019B1868009B1968D7
:1055D000009B5B681A46FFF7ABFE009B1B7D012B0F
:1055E00064D1009B9B68B3F1FF3F05D0009B9B6893
:1055F00000211846FFF77DFF009BDB68B3F1FF3FFA
:1056000009D0009BDB681846FFF788FF009BDB682A
:105610001846FFF75DFF019B1868009BD968009B47
:105620009B681A46FFF793FE40E0019B1A68009BB7
:105630009B6919461046FFF702FE019B1868009B04
:10564000597D009B1B7D1A46FFF7E4FD019B1868FE
:10565000009B1968009B5B681A46FFF799FD009B49
:105660001B7D012B22D1009B9B68B3F1FF3F05D02E
:10567000009B9B6800211846FFF73BFF009BDB68FF
:10568000B3F1FF3F09D0009BDB681846FFF746FFE8
:10569000009BDB681846FFF71BFF019B1868009B07
:1056A000D968009B9B681A46FFF781FD00BF03B0D5
:1056B0005DF804FBA020002000B583B001900B46EC
:1056C0008DF80330019B1B792D4A5B0113441C3379
:1056D0001B78002B2FD0019B1B684FF48871184654
:1056E000FFF7B7FD019B1B684FF490711846FFF759
:1056F000B0FD019B1B684FF492711846FFF7A9FD9E
:10570000019B1B684FF4A2711846FFF7A2FD019B95
:105710001B681C491846FFF7E0FD019B1B681846F3
:10572000FFF785FE03461A469DF8033019461046DA
:10573000FEF72AFB20E0019B1B684FF48E71184690
:10574000FFF7C4FC019B1B684FF4A2711846FFF7DA
:10575000BDFC019B1B680C491846FFF7DEFC019B52
:105760001B681846FFF763FE03461A469DF8033090
:1057700019461046FEF708FB00BF03B05DF804FBB6
:10578000A0200020100302008000020000B583B0BA
:105790000190019B1B790B4A5B0113441C331B785E
:1057A000002B05D0019B1B681846FFF7B8FD04E0ED
:1057B000019B1B681846FFF7E2FC00BF03B05DF8D1
:1057C00004FB00BFA020002000B587B00390029129
:1057D0000192039B1B795B011E4A1344059300232E
:1057E0000493059BDB7E002B03D008230493049BCA
:1057F0002BE0029B5A7F059B1A7702990398FFF7CB
:10580000ABFE059B019A5A60029B1A69059B1A60C0
:10581000059B5B68002B05D0029B1B7F19460398F4
:10582000FFF74AFF0398FFF7B1FF059B0022DA75E7
:10583000059B00221A76059B00229A75059B012282
:10584000DA76059B00229A76049B184607B05DF82D
:1058500004FB00BFA020002000B585B0019000919E
:105860004FF48E710198FFF731FC009B9B68009A02
:10587000928A92B213441B788DF80F30009B9B8A5A
:105880009BB201339AB2009B9A829DF80F30194661
:105890000198FFF7A4FC00BF05B05DF804FB000011
:1058A00000B585B00190019B1B795B01344A13441C
:1058B000029300230393019B1B684FF48E711846DB
:1058C000FFF704FC019B1B6808211846FFF794FCB6
:1058D000019B1B6802991846FFF7BEFF029B5B689D
:1058E000002B48D11FE000BF019B1B684FF48E7155
:1058F0001846FFF700FC034683F00103DBB2002BE0
:1059000005D0029B9B8A9BB2B3F5807FECD1029BB2
:105910009B8A9BB2B3F5807F05D0019B1B680299DF
:105920001846FFF799FF029B9B8A9AB2029B9B7DC8
:105930009BB29A42D7D3029B9B8A9BB2B3F5807FDE
:1059400002D10F23039313E000BF019B1B684FF4A8
:105950008E711846FFF7CFFB034683F00103DBB2DD
:10596000002BF2D1019B1B680C211846FFF744FC69
:10597000029B00229A75039B184605B05DF804FB54
:10598000A020002000B587B00190019B1B795B012E
:105990002A4A1344049300230593019B1B684FF488
:1059A00090711846FFF755FC019B1B684FF4AC71D2
:1059B0001846FFF74EFC019B1868049B9968049BEE
:1059C0009B7D1A46FFF7FFFC019B1B6808211846C8
:1059D000FFF7CCFC049B5B68002B2AD1019B1B6862
:1059E0004FF490711846FFF749FC03468DF80F30CD
:1059F000019B1B684FF4AC711846FFF73FFC034650
:105A00008DF80E309DF80F3083F00103DBB2002BD0
:105A100006D09DF80E3083F00103DBB2002BDDD100
:105A20009DF80E30002B01D00F230593049B00221C
:105A30009A75059B184607B05DF804FBA02000206E
:105A400000B587B00390029113468DF80730039B91
:105A50001B795B01214A13440593039B1B791F4A61
:105A60005B0113441C331B78002B0CD00298FFF70A
:105A7000E9FC034683F00103DBB2002B03D01023C3
:105A80000493049B25E0039800F02AF80346002BBA
:105A900003D011230493049B1BE0059B9DF8072072
:105AA0009A75059B029A9A60059B00229A82039B35
:105AB0001B790A4A5B0113441C331B78002B04D06A
:105AC0000398FFF75FFF034603E00398FFF7E8FE44
:105AD0000346184607B05DF804FB00BFA020002075
:105AE00082B00190019B1B79064A5B011344163377
:105AF0001B78002B14BF01230023DBB2184602B031
:105B0000704700BFA020002000B583B00190019B2A
:105B10001B684FF492711846FFF7D8FA019B1B6877
:105B20004FF484711846FFF7D1FA019B1B680021DE
:105B30001846FFF761FB00BF03B05DF804FB10B52A
:105B400082B001900091009BDB7D002B08D14FF4C7
:105B500084710198FFF7BAFA0198FFF737FB16E056
:105B60004FF484710198FFF7B1FA009BDB68009A4B
:105B7000527ED2B29C180198FFF728FB034623708F
:105B8000009B5B7EDBB20133DAB2009B5A7602B037
:105B900010BD000000B589B00390029111461A466D
:105BA0000B468DF8073013468DF80630039B1B79A2
:105BB0005B014D4A13440793079B9B7E83F00103CF
:105BC000DBB2002B09D09DF8063083F00103DBB275
:105BD000002B02D00398FFF797FF079B5B68002B11
:105BE00073D1039B1B684FF4A2711846FFF76EFA3E
:105BF000039B1B684FF492711846FFF77CFA03462B
:105C00008DF81B30039B1B684FF484711846FFF717
:105C100072FA03468DF81A30039B1B684FF4A27189
:105C20001846FFF768FA03468DF819309DF81A30C8
:105C300083F00103DBB2002B0DD09DF8193083F007
:105C40000103DBB2002B06D09DF81B3083F001036B
:105C5000DBB2002BCCD19DF81B30002B10D19DF86E
:105C60001930002B0CD1039B1B6807991846FFF7CE
:105C700066FF079BDA7D079B5B7EDBB29A42B7D853
:105C8000079B0022DA759DF81B30002B03D00323FD
:105C90000593059B23E09DF81930002B03D00F23BB
:105CA0000593059B1BE0079B9B7E002B06D0039B67
:105CB0001B6800211846FFF79FFA0DE0039B1B6845
:105CC00004211846FFF798FA06E0039B1B684FF47F
:105CD00001711846FFF721FA00230593059B18462A
:105CE00009B05DF804FB00BFA020002000B587B01C
:105CF0000390029111461A460B468DF80730134661
:105D00008DF8063000230593039B1B684FF48871C0
:105D10001846FFF79EFA039B1B684FF4A2711846C2
:105D2000FFF797FA039B1B689DF807200299184616
:105D3000FFF763FB9DF8063083F00103DBB2002B15
:105D400006D0039B1B6800211846FFF70FFB05E0F8
:105D5000039B1B6820211846FFF7A2FA039B1B79BF
:105D60002D4A5B01134404331B68002B47D1039B6E
:105D70001B684FF488711846FFF780FA03468DF8C8
:105D80001330039B1B684FF4A2711846FFF776FA95
:105D900003468DF81230039B1B684FF4927118462E
:105DA000FFF76CFA03468DF811309DF8133083F03D
:105DB0000103DBB2002B0DD09DF8123083F00103FC
:105DC000DBB2002B06D09DF8113083F00103DBB26B
:105DD000002BCCD1039B1B790F4A5B011344173373
:105DE00000221A709DF81130002B01D00323059377
:105DF0009DF81230002B09D00F23059306E0039B7A
:105E00001B684FF404711846FFF767FA059B1846A4
:105E100007B05DF804FB00BFA020002000B589B0EA
:105E20000390029113468DF80730039B1B795B01A9
:105E30004F4A13440693039B1B794D4A5B0113445D
:105E40001C331B78002B0CD00298FFF7FBFA03469B
:105E500083F00103DBB2002B03D010230593059BD5
:105E600081E000238DF81F30069B5B68002B17D064
:105E7000039B1B793E4A5B0113441C331B78002BA8
:105E800007D0039B1B684FF404711846FFF72FFAE5
:105E900006E0039B1B684FF401711846FFF757F9A2
:105EA000069BDB7D002B26D0069B1B7E002B1FD084
:105EB000069B5B68002B17D0039B1B792C4A5B0168
:105EC00013441C331B78002B07D0039B1B684FF433
:105ED00004711846FFF701FA06E0039B1B684FF4B4
:105EE00001711846FFF719F911230593059B3AE054
:105EF00001238DF81F309DF81F3083F00103DBB2C2
:105F0000002B0DD0069B9DF80720DA75069B029AA0
:105F1000DA60069B00225A76069B00221A7606E07B
:105F2000069B029A1A61069B9DF807201A76039B2E
:105F30001B790F4A5B0113441C331B78002B09D0DB
:105F40009DF81F309DF8072002990398FFF7CEFEB9
:105F5000034608E09DF81F309DF80720029903983A
:105F6000FFF718FE0346184609B05DF804FB00BFB2
:105F7000A020002000B583B00190019B1B79114A3D
:105F80005B0113441C331B78002B16D1019B1B793A
:105F90000C4A5B0113441A331B7883F00103DBB214
:105FA000002B0AD00198FFF7AFFD019B1B79054A32
:105FB0005B0113441A3301221A7000BF03B05DF86D
:105FC00004FB00BFA020002000B589B003900B4661
:105FD00001928DF80B3001238DF810309DF80B30B5
:105FE0008DF81830019B0593039B5B68039A116839
:105FF00004AA1046984700BF09B05DF804FB00B53D
:1060000087B001900B468DF8033000238DF80830DF
:106010009DF803308DF81030019B9B680393019B22
:1060200000229A75019B5B68019A116802AA1046CA
:10603000984700BF07B05DF804FB00B589B0019038
:1060400000914FF400710198FFF771F80346002B9F
:1060500039D04FF492710198FFF74DF80346002BA9
:1060600031D04FF492710198FFF730F84FF401717D
:106070000198FFF76CF8009B9B7E83F00103DBB275
:10608000002B03D004210198FFF7B6F802238DF806
:1060900008300198FFF765F803460593009BDB7D08
:1060A0008DF81030009BDB680393009B0022DA75AB
:1060B000009B00221A76009B5B68009A116802AA76
:1060C0001046984756E004210198FFF730F8034640
:1060D000002B4FD04FF484710198FFF70CF8034662
:1060E000002B47D000990198FFF729FD009BDA7D2E
:1060F000009B5B7EDBB29A423CD1009B1B7E002B57
:106100001CD0009BDB680793009B5B7E8DF81B30E7
:10611000009B1A7E009BDA75009B1A69009BDA606F
:10612000009B00221A76009B00225A769DF81B30B5
:10613000079A19460098FFF747FF1BE0009B9B7EDC
:1061400083F00103DBB2002B03D004210198FFF799
:1061500053F84FF401710198FEF7F9FF009B0022FC
:10616000DA75009B5B7ED9B2009BDB681A4600980B
:10617000FFF72AFF4FF48E710198FEF7BCFF03462C
:10618000002B1BD0009B9B8A9AB2009B9B7D9BB2ED
:106190009A4204D200990198FFF75EFB0EE04FF49B
:1061A0008E710198FEF792FF009B9B7D002B05D01E
:1061B000009B9B7D19460098FFF721FF4FF4A271C9
:1061C0000198FEF798FF0346002B1CD04FF4A271F4
:1061D0000198FEF77BFF009B9B7E002B03D00021E4
:1061E0000198FFF709F8009BDB7D002B0BD0009B8B
:1061F0000022DA75009B5B7ED9B2009BDB681A46F1
:106200000098FFF7E1FE00BF09B05DF804FB00B5A0
:1062100089B0019000914FF492710198FFF72EF828
:106220000346002B24D04FF492710198FFF711F828
:1062300002238DF808300198FFF763F803460593B1
:106240000198FFF7ECF80346DBB28DF81030009BA5
:10625000DB680393009B0022DA75009B00221A760C
:10626000009B5B68009A116802AA1046984741E0BB
:106270004FF488710198FFF701F80346002B39D0DD
:106280004FF488710198FEF7E4FF0198FFF7C7F813
:1062900003468DF81F30009BDB7D9DF81F209A423E
:1062A00028D1009B1B7E002B19D0009BDB68069336
:1062B00020210198FFF702F8009B1A7E009BDA75F7
:1062C000009B1A69009BDA60009B00221A769DF8F9
:1062D0001F30069A19460098FFF776FE0AE0009BE9
:1062E0000022DA75009BDA689DF81F301946009885
:1062F000FFF76AFE4FF4A2710198FEF7BFFF034655
:10630000002B16D04FF4A2710198FEF7A2FF009B5C
:10631000DB7D002B0DD0009B0022DA750198FFF782
:106320007EF80346D9B2009BDB681A460098FFF757
:106330004BFE4FF490710198FEF7A0FF0346002B2F
:1063400011D04FF490710198FEF783FF009B9B7D65
:10635000002B08D00198FFF748F80346DBB2194636
:106360000098FFF74CFE00BF09B05DF804FB000089
:1063700008B5074B1B7F002B04D005490548FFF7E4
:1063800046FF03E002490348FFF757FE00BF08BD80
:10639000A02000200020004082B003468DF8073086
:1063A0009DF8073003F01F0206499DF907305B098D
:1063B000012000FA02F2203341F8232000BF02B08E
:1063C000704700BF00E100E082B001904FF08042D2
:1063D000019BC2F8043300BF02B0704782B0019045
:1063E0004FF08042019BC2F8083300BF02B07047F3
:1063F00082B003468DF807309DF8073003F18043E3
:1064000001221A6000BF02B0704784B00346ADF8A5
:106410000630BDF8063003F1804300221A60BDF853
:10642000063003F180431B680393039B00BF04B055
:10643000704782B00346ADF80630BDF8063003F170
:1064400080431B68002B14BF01230023DBB21846D6
:1064500002B0704782B003468DF807309DF80730D0
:106460004FF0804203F00303C2F8183500BF02B0BA
:1064700070474FF08043D3F818341B0C03F001032E
:10648000002B14BF01230023DBB218467047000025
:1064900082B003468DF807300A4A9DF907305B0940
:1064A00052F823209DF8073003F01F03012101FA61
:1064B00003F31340002B14BF01230023DBB2184663
:1064C00002B0704700E100E008B50020FFF7E0FFF0
:1064D000034683F00103DBB2002B03D00721002029
:1064E000FDF752FC00BF08BD08B54FF48270FFF7FE
:1064F0008CFF0220FFF768FF0820FFF779FF00BF3D
:1065000008BD000008B50C20FFF772FF00BFFFF7C1
:10651000B0FF0346002BFAD1024B00229A7000BF55
:1065200008BD00BFC020002000B583B00023019348
:10653000134B1B78002B02D0852301931BE0104BDB
:1065400000229A600E4B00225A600D4B00221A6105
:106550000B4B0022DA60FFF7B7FF01F037FB034671
:1065600083F00103DBB2002B02D00120FFF772FFA2
:10657000034B01221A70019B184603B05DF804FB1F
:10658000C020002084B001900091019B1B68039300
:1065900006E0039A009B9A420DD0039B1B6803936D
:1065A000039B002BF5D1019B1A68009B1A60019B8D
:1065B000009A1A6000E000BF04B0704784B00190F8
:1065C000019B1B680393039B002B03D0039B1A685A
:1065D000019B1A60039B184604B0704700B585B054
:1065E0000190214B9B78DBB2002B19D0019B002B33
:1065F00003D0019B5B680120984700238DF80F3082
:106600000DF10F03184601F01DF8174BDB6801333D
:10661000154AD3609DF80F30184601F01DF81EE0B2
:1066200000238DF80E300DF10E03184601F00AF824
:10663000019B002B03D001990C48FFF7A3FF0A4BE5
:10664000DB68002B01D1FFF74FFF074BDB680133FD
:10665000054AD3609DF80E30184600F0FDFF00BFDC
:1066600005B05DF804FB00BFC0200020D020002052
:1066700000B583B000238DF807300DF107031846ED
:1066800000F0E0FF094BDB68013B084AD360074B91
:10669000DB68002B01D1FFF735FF9DF80730184666
:1066A00000F0DAFF00BF03B05DF804FBC02000205B
:1066B00000B585B003468DF807309DF80730002BF4
:1066C00002D10C4B039301E00B4B03930398FFF7AC
:1066D00075FF0290029B002B06D0029B5B689DF821
:1066E000072010469847F1E700BF00BF05B05DF8EE
:1066F00004FB00BFC8200020D020002008B54FF4C4
:106700008070FFF796FE0346002B0CD04FF480708C
:10671000FFF77BFE0120FFF761FE0E4B01225A704E
:106720000020FFF7C5FF4FF48270FFF782FE03469B
:10673000002B0CD04FF48270FFF767FE0220FFF7AA
:106740004DFE044B01229A700120FFF7B1FF00BFFC
:1067500008BD00BFC020002000B583B001900091AB
:10676000019B002B02D10020FFF7A2FF00BF03B066
:106770005DF804FB00B585B0034600918DF8073045
:106780009DF80730032B29D0032B2EDC002B02D0E1
:10679000012B04D029E00020FFF7FEFD26E00023B6
:1067A0008DF80F300DF10F03184600F04BFF114B21
:1067B0001B7883F00103DBB2002B01D0FFF7B4FE9E
:1067C0000C4BDB6801330B4AD3600A4B01229A70F1
:1067D0009DF80F30184600F03FFF07E0072100202A
:1067E000FDF7D2FAFFF744FF00E000BF00BF05B09D
:1067F0005DF804FBC020002082B001900B468DF8AC
:1068000003309DF80330019A134401221A6000BF3F
:1068100002B0704784B001900B46ADF80230BDF86D
:106820000230019A134400221A60BDF80230019A26
:1068300013441B680393039B00BF04B0704782B0EE
:1068400001900B46ADF80230BDF80230019A1344B6
:106850001B68002B14BF01230023DBB2184602B0D3
:10686000704782B001900091019B009AC3F8042305
:1068700000BF02B0704782B001900091019B009A66
:10688000C3F8082300BF02B0704782B00190019B9B
:106890000522C3F8002500BF02B0704782B0019006
:1068A000019B0022C3F8002500BF02B0704784B0EE
:1068B000039002910192039B029AC3F80825039B5F
:1068C000019AC3F80C2500BF04B0704782B0019054
:1068D0000091019B009AC3F8242500BF02B07047C5
:1068E00084B00190019BD3F8C4340393019B039AB5
:1068F000C3F8C424039B184604B0704782B00190CB
:106900000B468DF803309DF80320019BC3F88825C2
:1069100000BF02B0704782B00190019BD3F81835D8
:10692000DBB2184602B0704782B001900B468DF87A
:1069300003309DF80320019BC3F81C2500BF02B063
:10694000704782B001900091019B009AC3F8002229
:1069500000BF02B0704784B00190019B1B0B8DF803
:106960000F309DF90F30184604B0704782B0019087
:106970004FF0A043184602B0704700B585B00190B3
:1069800001AB1846FFF7F2FF0390019B012202FAC8
:1069900003F31946039800F035F800BF05B05DF821
:1069A00004FB00B585B0019001AB1846FFF7DEFF90
:1069B0000390019B012202FA03F31946039800F0A9
:1069C0002BF800BF05B05DF804FB00B585B0019061
:1069D00001AB1846FFF7CAFF0390039800F00AF8CE
:1069E0000246019B22FA03F303F00103184605B0A7
:1069F0005DF804FB82B00190019BD3F81035184676
:106A000002B0704782B001900091019B009AC3F8D8
:106A1000082500BF02B0704782B001900091019B31
:106A2000009AC3F80C2500BF02B0704784B00190F3
:106A3000244B0393019B002B40D0234B1A680399EE
:106A4000019B00BF00BF00BF00BF00BF00BF00BF71
:106A500000BF8A422FD000BF00BF00BF00BF00BFF1
:106A600000BF00BF00BF00BF00BF00BF00BF00BF2E
:106A700000BF00BF00BF00BF00BF00BF00BF00BF1E
:106A800000BF00BF00BF00BF00BF00BF00BF00BF0E
:106A900000BF00BF00BF00BF00BF00BF00BF00BFFE
:106AA00000BF00BF00BF00BF00BF00BF00BF00BFEE
:106AB00000BF00BF00BF013BC3D1019300BF04B0C2
:106AC000704700BF0024F4000020002084B0019033
:106AD00003230393019B03F00103002B02D04FF427
:106AE00002430393019B03F00203002B02D048F200
:106AF00001230393019B03F00403002B02D048F20F
:106B000002230393039B184604B0704700B585B079
:106B100001904FF0A042019B1B6803F5E07340F227
:106B20000C6142F823104FF0A042019B5B6803F513
:106B3000E07340F20C6142F82310019B1B68184679
:106B4000FFF71BFF019B5B681846FFF716FF4FF02E
:106B5000A042019B1B6803F5E07340F20D6142F80F
:106B600023104FF0A042019B5B6803F5E07340F2F5
:106B70000D6142F823100420FFF758FF0023039310
:106B80001EE0019B5B681846FFF71FFF0346002BC2
:106B900003D0039B002B17D124E0019B1B681846F0
:106BA000FFF7FFFE0420FFF741FF019B1B6818461B
:106BB000FFF7E3FE0420FFF739FF039B0133039344
:106BC000039B082BDDDD00E000BF019B5B681846DE
:106BD000FFF7E7FE0420FFF729FF019B5B681846DB
:106BE000FFF7CBFE05B05DF804FB000000B589B0EF
:106BF0000390029101920093039B1B791A4613465E
:106C00009B001344DB00354A13440793079B93F81A
:106C10002230002B03D008230593059B59E0079BE6
:106C2000019A1A60079B009A5A60079B00229A609B
:106C3000079B002283F82520079B002283F824204D
:106C4000029B9A7B079B83F82720029B5B7B002B90
:106C500002D00298FFF75AFF4FF0A042029B1B6838
:106C600003F5E07340F20C6142F823104FF0A042AC
:106C7000029B5B6803F5E07340F20C6142F823105D
:106C8000039B1B680693029B1968029B5B681A466C
:106C90000698FFF70CFE029B9B6819460698FFF7C3
:106CA00015FE079B1B68002B0CD0039B1B68184626
:106CB000FFF751FE03461A46029B1B7B19461046FE
:106CC000FDF762F8079B012283F822200023059339
:106CD000059B184609B05DF804FB00BFD4200020D6
:106CE00000B585B00190019B1B791A4613469B00A5
:106CF0001344DB00084A13440393019B1B6802936F
:106D00000298FFF7C2FD039B022283F8222000BFF6
:106D100005B05DF804FB00BFD420002000B585B0AD
:106D200003900291009313468DF80730009B1B7867
:106D30009DF807209A4210D9009B1B781A46029BA7
:106D400013441B7819460398FFF7EEFD009B1B7850
:106D50000133DAB2009B1A700DE09DF81830002B59
:106D600005D01C210398FFF747FD002304E0142100
:106D70000398FFF741FD0123184605B05DF804FBB9
:106D800010B584B003900291009313468DF807303C
:106D9000009B1B789DF807209A4228D9009B1B78FE
:106DA0001A46029B9C180398FFF7B5FD0346237013
:106DB000009B1B780133DAB2009B1A70009B1B7892
:106DC0001A469DF80730013B9A4204D102210398EC
:106DD000FFF7B7FD05E0009B1B789DF807209A425E
:106DE00004D020210398FFF707FD00E000BF04B0A6
:106DF00010BD00B589B00590049103920293049BE5
:106E00001B78002B05D1039B1B789DF828209A4204
:106E100001D1012300E000238DF81F309DF81F30C1
:106E200003F001038DF81F30049B1B78002B0FD05B
:106E30004FF492710598FFF7EDFC4FF48E710598B1
:106E4000FFF7E8FC4FF484710598FFF7E3FC71E06D
:106E50004FF492710598FFF7F2FC0346002B0CD01B
:106E60004FF492710598FFF7D5FC14210598FFF7B0
:106E7000C3FC049B01221A705CE04FF48E710598EC
:106E8000FFF7DDFC0346002B2BD04FF48E710598E5
:106E9000FFF7C0FC4FF492710598FFF7D0FC034652
:106EA000002B0CD04FF492710598FFF7B3FC14211E
:106EB0000598FFF7A1FC049B01221A703AE09DF8A7
:106EC00028209DF82C300093039B02990598FFF72A
:106ED00025FF034683F00103DBB2002B2AD00023F9
:106EE0003CE04FF484710598FFF7A9FC0346002BA2
:106EF00020D04FF484710598FFF78CFC4FF4927109
:106F00000598FFF79CFC0346002B0CD04FF49271C0
:106F10000598FFF77FFC14210598FFF76DFC049B93
:106F200001221A7006E09DF82820039B029905981B
:106F3000FFF726FF9DF81F30002B0ED04FF4827113
:106F40000598FFF77CFC0346002B06D04FF48271B6
:106F50000598FFF75FFC002300E00123184609B005
:106F60005DF804FB00B58BB00590049103928DF899
:106F70000B300023099342F2107307934FF4827190
:106F80000498FFF747FC4FF492710498FFF742FC16
:106F90004FF48E710498FFF73DFC4FF48471049810
:106FA000FFF738FC00210498FFF7CBFC059B00227B
:106FB00083F82620059B002283F8232020210498B3
:106FC000FFF71AFC08210498FFF716FC059B03F154
:106FD00026019DF80B209DF8303000930B46039955
:106FE0000498FFF79BFE059B1B68002B0DD0059BAB
:106FF00040F286229A60059B9B6819460498FFF729
:1070000030FC33E0079B013B0793079B002B12DD0D
:10701000059B03F12301059B03F126029DF8303007
:1070200001939DF80B300093039B0498FFF7E1FE5A
:107030000346002BE6D1059B93F82330002B0AD0A2
:107040000498FFF74DFC0890089B002B03D008988C
:10705000FFF73CFD0990079B002B07DC0498FFF726
:107060001DFC0498FFF711FC03230993099B1846A4
:107070000BB05DF804FB00B58BB005900491039252
:107080008DF80B300023099342F2107307934FF4ED
:1070900082710498FFF7BEFB4FF492710498FFF7DA
:1070A000B9FB4FF48E710498FFF7B4FB4FF4847171
:1070B0000498FFF7AFFB059B002283F82620059B71
:1070C000002283F823209DF80B30012B04D10221EC
:1070D0000498FFF736FC03E001210498FFF731FC28
:1070E00020210498FFF788FB00210498FFF784FB18
:1070F000059B1B68002B0DD0059B40F286229A60F1
:10710000059B9B6819460498FFF7ABFB32E0079B91
:10711000013B0793079B002B11DD059B03F1230126
:10712000059B03F12602002301939DF80B30009389
:10713000039B0498FFF75DFE0346002BE7D1059BF8
:1071400093F82330002B0AD00498FFF7C9FB08906E
:10715000089B002B03D00898FFF7B8FC0990079B09
:10716000002B07DC0498FFF799FB0498FFF78DFBD1
:1071700003230993099B18460BB05DF804FB00B587
:1071800089B00590049103920293002307934FF076
:10719000FF310498FFF76FFB059B93F82430DBB2B7
:1071A000002B09D0059B9B6819460498FFF759FBF3
:1071B00011230793079B66E0029B03F00403002B57
:1071C0000CBF01230023DAB2059B83F82420029B25
:1071D00003F00803002B03D006230793079B52E01C
:1071E000059B029A9A61059B039A0C3307CA83E8B0
:1071F0000700039B9A78059B83F82020039B5A681D
:10720000059BDA61039B5B7819460498FFF776FBD0
:10721000039B1B78012B20D0039B1B78002B04D1F0
:10722000029B03F02003002B01D0012300E0002388
:1072300003F00103DAB2059B83F82120039B5A680F
:10724000039B9978059B93F8213000930B46049992
:107250000598FFF787FE07900CE0059B002283F856
:107260002120039B5A68039B9B7804990598FFF79C
:1072700002FF0790059B1B68002B03D1059B002292
:1072800083F82420079B184609B05DF804FB000032
:1072900000B587B003900291019200230593039BF0
:1072A0001B791A4613469B001344DB000C4A134417
:1072B0000493019B03F00303002B03D006230593E3
:1072C000059B08E0039B1968019B029A0498FFF74D
:1072D00056FF0590059B184607B05DF804FB00BFFC
:1072E000D420002000B589B0039001921A460B46C5
:1072F0008DF80B3013468DF80A3005AB00221A606A
:107300005A609A609DF80B308DF815309DF80A3060
:107310008DF81630019B06939DF82830002B01D084
:10732000202200E0002205AB19460398FFF7B0FFCA
:107330000346184609B05DF804FB00B589B0039018
:1073400001921A460B468DF80B3013468DF80A3021
:1073500005AB00221A605A609A6001238DF8143040
:107360009DF80B308DF815309DF80A308DF81630E9
:10737000019B069305AB002219460398FFF788FF8F
:107380000346184609B05DF804FB10B58AB00390B7
:107390000291029B03F12301029B03F12600029B51
:1073A000DC69029B93F82030029A92F82120019226
:1073B0000093234602460398FFF71BFD0346002B6C
:1073C0007DD1029B93F8233083F00103DBB2002BC5
:1073D0003FD0029B1B7B022B03D0029B1B7B032B0A
:1073E00037D1029BDA69029B1B699A4231D1029B19
:1073F0005A69029BDA61029BDA7B029B83F82020A8
:10740000029B9B6903F02003002B14BF0123002380
:10741000DAB2029B83F82120029B1B7B032B0ED147
:10742000029BDA69029B93F82010029B93F82130AB
:1074300000930B4603990298FFF794FD40E0029BEE
:10744000DA69029B93F8203003990298FFF713FE44
:1074500036E0029A06AB0C3207CA83E80700029BAB
:1074600093F82330002B15D00398FFF739FA0990D1
:10747000099B03F00203002B03D001238DF8143085
:107480000BE0099B03F00403002B06D002238DF8C8
:10749000143002E000238DF81430029B002283F8A0
:1074A0002420029B9B6903F00403002B08D1029B5C
:1074B0001B68029A516805AA1046984700E000BF71
:1074C0000AB010BD08B503490348FFF75EFF00BFCF
:1074D00008BD00BFD42000200030004000B587B0B8
:1074E00001900023ADF80C3000230493019B059319
:1074F00003AB1A46002144F2010000F01BF800BF64
:1075000007B05DF804FB0000BFF34F8F00BF074BCF
:10751000DB6803F4E0620549054B1343CB60BFF31E
:107520004F8F00BF00BF00BFFCE700BF00ED00E0D1
:107530000400FA0500B585B0039002910192064B54
:107540001B6803F00103002B00D0FFDEFFF7DCFF18
:1075500000BF05B05DF804FBF0ED00E082B0EFF392
:1075600010830093009B019372B600BF019B1846E5
:1075700002B0704762B600BF00BF704700B585B06B
:107580000190FFF7EBFF0390164B9B68002B1BD17C
:10759000144B01229A60144BD3F88020134B1340F4
:1075A000104A1360104B114AC3F880200E4BD3F8D9
:1075B00084300C4A53600C4B4FF0FF32C3F88420E8
:1075C000019B00221A7002E0019B01221A70039BAA
:1075D000002B01D1FFF7CEFF0023184605B05DF860
:1075E00004FB00BFFC20002000E100E0FC06FFBD22
:1075F00000B585B003468DF80730104B9B68002B13
:1076000016D09DF80730002B12D1FFF7A7FF03908B
:107610000B4A0A4B1B681360094A084B5B685360AE
:10762000064B00229A60039B002B01D1FFF7A2FFBB
:107630000023184605B05DF804FB00BFFC200020C5
:1076400000E100E000B583B001900198FFF796FFDC
:1076500000BF03B05DF804FB00B583B003468DF8AE
:1076600007309DF807301846FFF7C2FF00BF03B090
:107670005DF804FB84B00190019B9B680393019B20
:10768000DA68039BD31A184604B0704782B00190A1
:107690000B468DF80330019B1A68019BDB6801994A
:1076A00089880B4013449DF803201A70019BDB6806
:1076B0005A1C019BDA6000BF02B0704784B003908F
:1076C0000B460192ADF80A30039B1A68039B996838
:1076D000BDF80A300B44039989880B4013441A788B
:1076E000019B1A7000BF04B0704700B583B00190D1
:1076F0000091009A00210198FFF7E0FF019B9B6831
:107700005A1C019B9A6000BF03B05DF804FB84B073
:10771000039002911346ADF80630029B002B01D175
:107720000E231DE0BDF80630002B07D0BDF8063053
:107730005A1EBDF806301340002B01D009230FE07C
:10774000039B029A1A60BDF80630013B9AB2039B74
:107750009A80039B00229A60039B0022DA60002338
:10776000184604B0704700B583B001900B468DF801
:1077700003300198FFF77EFF0246019B9B889A42E7
:1077800007D89DF8033019460198FFF77FFF0023C3
:1077900000E00423184603B05DF804FB00B583B095
:1077A000019000910198FFF765FF0346002B05D07B
:1077B00000990198FFF799FF002300E00523184680
:1077C00003B05DF804FB00B583B001900091019B0C
:1077D000DBB2184600F05AF9019B184603B05DF879
:1077E00004FB82B001900091019B009A1A60019BFA
:1077F0001B681A68019B5A60019B5A68019B1B68B1
:107800005B689A4202D1019B00225A6000BF02B01D
:10781000704782B00190019B5B68002B14D0019BE4
:107820005B681A46019B1B689B6813441A46019BC0
:107830005A60019B5A68019B1B685B689A4204D19D
:10784000019B00225A6000E000BF02B0704784B084
:107850000190019B9B680393019BDA68039BD31AF9
:10786000184604B07047000000B587B00190009141
:10787000019B1B78022B3BD0022B60DC002B48D0F5
:10788000012B5CD1019B5B681B7819462E48FFF7E2
:107890006AFF0590059B002B0AD001238DF80C3060
:1078A000059B0493294B1B6803AA104698470DE0DB
:1078B0002548FFF7CCFF0346002B07D000238DF8A7
:1078C0000C30224B1B6803AA104698471E48FFF74E
:1078D000BEFF03461C4A9288934205D801221C49E8
:1078E0001C48FEF79BFA2BE01B4B01221A7027E085
:1078F00002238DF80C30019BDB68049301221449AC
:107900001448FEF78BFA114B1B6803AA10469847E0
:1079100016E012491248FFF741FF0346002B05D13C
:1079200001220E490B48FEF78BF809E003238DF87E
:107930000C30064B1B6803AA1046984700E000BFB6
:1079400000BF07B05DF804FB1421002008210020CF
:107950001021002010200020112100200C210020E7
:107960002421002030B58FB00390029101928DF850
:1079700003303E4A019B1360029B002B01D1072379
:1079800071E0029B1968029B5B689BB21A463848FB
:10799000FFF7BDFE0D900D9B002B01D00D9B62E00B
:1079A000029B9968029BDB689BB21A463148FFF73D
:1079B000AEFE0D900D9B002B01D00D9B53E02E4B86
:1079C00005AC1D460FCD0FC495E80F0084E80F00ED
:1079D000039B5B690B93039B1B7C002B14BF012350
:1079E0000023DBB28DF828309DF803308DF830305D
:1079F000039B5B7C002B01D00E2300E000238DF85D
:107A00002930039BDB680793039B9B680893039BC8
:107A10001B680693039B5B68059305AB174A1946E1
:107A20001748FDF7D1FE0D900D9B002B01D00D9B4B
:107A300019E0144B00221A70039B1B68B3F1FF3F3F
:107A400010D09DF8313083F00103DBB2002B02D05F
:107A50000B48FEF78FFA01220B490948FEF7DEF9C1
:107A6000034600E0002318460FB030BD0821002077
:107A70001421002024210020F8C4020069780200AB
:107A800010200020112100201021002000B585B019
:107A900003468DF807309DF8073019461048FFF768
:107AA00062FE0390039B002B15D10E48FEF718F8D9
:107AB000034683F00103DBB2002B0CD00A490848CF
:107AC000FFF76CFE0346002B05D10122064905484D
:107AD000FDF7B6FF0390039B184605B05DF804FB65
:107AE00024210020102000200C21002084B00190CF
:107AF0000091009B0293019B9B88ADF80E3000BF64
:107B000004B0704700B589B001900091019B043327
:107B1000079301238DF81B3000238DF81A30019B49
:107B20001B881D2B01D0202B3FE0224B1B780133FB
:107B3000DAB2204B1A70079B04330593059B103370
:107B40000493059B93F90E308DF80F30059B9B79BC
:107B5000DE2B09D1059B5B79CA2B05D1059B1B79CF
:107B6000012B01D1012300E000238DF81B309DF88B
:107B70001B3003F001038DF81B309DF81B30002BE8
:107B800012D0059B5B781B021AB29DF80F301BB216
:107B900013431BB29BB2ADF80C30074B186803A916
:107BA0000023002201F066FA00BF00BF09B05DF8B3
:107BB00004FB00BF382100203421002082B0019056
:107BC000019B5B68184602B070470000014B1B78B0
:107BD000184670474821002000B585B06B46114912
:107BE0001846FFF7FEFD10E06B461846FFF7E6FF6C
:107BF0000390039B1B680293039B5A68029B1046E9
:107C000098476B461846FFF704FE6B461846FFF789
:107C1000D5FF0346002BE7D100BF00BF05B05DF8DC
:107C200004FB00BF18C5020008B5FFF7D5FF00BF71
:107C300008BD61DF704700BF184682B00190019B0C
:107C40005B68184602B0704700B599B001903823C0
:107C5000ADF84E300DF14E0203AB11461846FFF75A
:107C6000E8FF1790179B002B03D0179B052B22D101
:107C700024E003AB169311AB12491846FFF7B1FD90
:107C800011E011AB1846FFF7D8FF1590159B1B6844
:107C90001493159B5A68149B11461698984711AB7C
:107CA0001846FFF7B6FD11AB1846FFF7C6FF0346AF
:107CB000002BE6D1CBE71798FFF710FC00BF19B0F7
:107CC0005DF804FB24C5020082B00190019B5B6853
:107CD000184602B0704748DF704700BF18460000E2
:107CE00000B589B0019004AB1846FFF7F4FF079088
:107CF000079B002B03D0079B052B20D122E002AB72
:107D000012491846FFF76DFD11E002AB1846FFF768
:107D1000DBFF0690069B1B680593049A069B596837
:107D2000059B1046984702AB1846FFF772FD02AB61
:107D30001846FFF7C9FF0346002BE6D1D3E70798A3
:107D4000FFF7CCFB00BF09B05DF804FB30C50200B3
:107D500010B586B00346ADF806300023ADF81630F6
:107D600000230493594B1B6800225A74574B1B681D
:107D700000229A76554B1B6800221A83534B1B68CE
:107D800000229A62514B1B680022DA624F4B1B683B
:107D900000221A634D4B1B6800225A6300F09AF8C8
:107DA00003464B4A934202D04FF0FF338AE000F083
:107DB000A5FC002000F0EAFB04220021242000F0B2
:107DC00031FB1E2000F085FB0346ADF81630BDF8F0
:107DD00016301B0A9AB23D4B1B68D2B25A7204206D
:107DE00000F077FB0490049BDBB2002B0DD0022245
:107DF00012212D2000F016FB344B1B681A8B334BDD
:107E00001B6842F4805292B21A83304B1C680620E1
:107E100000F05FFB034623602C4B1C68072000F03A
:107E200058FB03466360BDF81630DAB2274B1B6877
:107E300002F01F02D2B21A74244B1B681B7C002B69
:107E400003D1224B1B6810221A74204B1B681B7C29
:107E5000184600F077FCBDF8063003F00103002B54
:107E60000BD000F080FB194B1B681A8B174B1B685B
:107E700042F4006292B21A8313E00521362000F02A
:107E8000B1FA0346ADF80E30BDF80E3023F400739E
:107E9000ADF80E30BDF80E301A460521362000F040
:107EA000D5FA012000F072FB00220A212C2000F0FC
:107EB000B9FA064B1C680021042000F06FFA034653
:107EC00063610023184606B010BD00BF18200020D3
:107ED0003001CADE08B50021002000F05FFA034639
:107EE000184608BD00B587B0019000238DF8173003
:107EF00000238DF81630019B1B788DF81330019B01
:107F00005B791A46AC4B33F81230ADF81430019B54
:107F10005B78013B8DF812309DF81330042B03D0B1
:107F20009DF81330072B01D1012300E000238DF8C9
:107F30001130019BDB79002B0DD1A04B1B685A69D6
:107F40009E4B1B6842F480025A61BDF81430DB0876
:107F5000ADF8143007E0994B1B685A69974B1B68C2
:107F600022F480025A61954B1B68019A127A1A72A8
:107F7000924B1B685A69914B1B6822F440325A613C
:107F80008E4B1B685969019B1B7A1B0403F440321A
:107F90008A4B1B680A435A61884B1B685B691A4607
:107FA0000021042000F071FABDF814301A4642F6A0
:107FB00004012E2000F04AFA9DF81230184600F015
:107FC000B3FA9DF813307E4AD35C1A467D4B53F8C2
:107FD00022301A4607212B2000F057FA9DF8133063
:107FE000774AD35C1A46784B9B5C1A460B212B20B0
:107FF00000F018FA9DF81130744AD35C1A460B2130
:10800000282000F00FFA9DF813306D4AD35C1A4611
:108010006F4B53F822301A460C21282000F035FA15
:10802000019BDB791846019B9B791946694A4300FD
:108030000B4432F813301A460221272000F006FACA
:108040009DF81230644A32F813301A460421272072
:1080500000F0FCF9019BDB79002B05D1642206219D
:10806000272000F0F3F918E0019B9B78042B0AD13C
:1080700010220621272000F0E9F9102226212720CE
:1080800000F0D0F909E020220621272000F0DEF9D7
:1080900028222621272000F0C5F99DF81230019AE8
:1080A000D27811464D4A9B000B4452F823301A46B1
:1080B0000821272000F0E9F9019B5B89002B03D1FF
:1080C000019B41F241025A81019B5B891A462021A2
:1080D000272000F0BBF9424B1B681A460C212320D5
:1080E00000F0D3F99DF812303D4A5B0013449B88A1
:1080F0001A460421232000F0A9F9019B9B79002B4B
:108100000FD0019BDB791A46364B9B5C1A46002147
:10811000212000F087F903238DF8173001238DF813
:1081200016309DF8133003F00F029DF813301B0139
:10813000DBB21A43019B5B789B0403F440231A4390
:108140009DF817301B0503F440131A439DF81630B1
:108150005B0403F400331A43019B1B799B0503F076
:10816000F8631343019A5279D20613430393039A97
:1081700000211F2000F089F9019B9A78019B5B7810
:108180001343DBB21A04019BDB795B031A430B4BED
:108190001B68DA60094B1B68DB681A46002108205F
:1081A00000F073F9422200210D2000F03BF900BFDE
:1081B00007B05DF804FB00BFBCC50200182000201A
:1081C0003CC502005CC5020074C502007CC502000B
:1081D00044C502008CC5020098C502009CC502007F
:1081E00080C5020088C5020000B583B00346ADF823
:1081F0000630BDF806301A4641F604012E2000F084
:1082000025F900BF03B05DF804FB00B583B0034659
:10821000ADF80630BDF806301A460021182000F0EF
:1082200015F900BF03B05DF804FB00B587B00292FA
:1082300001930346ADF80E300B46ADF80C30002329
:108240000593BDF80C30002B0DD1BDF80E30DAB21D
:10825000059B591C059162F07F02D2B218336B4422
:1082600003F8082C34E0BDF80E30DAB2059B591C37
:10827000059162F03F02D2B218336B4403F8082C28
:10828000BDF80C307F2B0AD8059B5A1C0592BDF80F
:108290000C20D2B218336B4403F8082C18E0BDF858
:1082A0000C30DAB2059B591C059162F07F02D2B204
:1082B00018336B4403F8082CBDF80C30DB0999B275
:1082C000059B5A1C0592CAB218336B4403F8082C5C
:1082D000059B98B204A9019B029A00F0D7FB00BF4E
:1082E00007B05DF804FB00B587B002920193034626
:1082F000ADF80E300B46ADF80C3000230593BDF8F9
:108300000C30002B0AD1059B5A1C0592BDF80E209B
:10831000D2B218336B4403F8082C34E0BDF80E30A9
:10832000DAB2059B591C059142F04002D2B21833D3
:108330006B4403F8082CBDF80C307F2B0AD8059B42
:108340005A1C0592BDF80C20D2B218336B4403F8C6
:10835000082C18E0BDF80C30DAB2059B591C0591C9
:1083600062F07F02D2B218336B4403F8082CBDF8D8
:108370000C30DB0999B2059B5A1C0592CAB218331E
:108380006B4403F8082C059B98B204A9019B029A40
:1083900000F0DAFA00BF07B05DF804FB00B587B063
:1083A0000190009100230593019B98B2009B99B224
:1083B00003AB0422FFF797FF032304930AE0059B16
:1083C0001B0203A9049A0A44127813440593049BE0
:1083D000013B0493049B002BF1DA059B184607B080
:1083E0005DF804FB00B585B0019000910023ADF865
:1083F0000E30019B98B2009B99B203AB0222FFF7AB
:1084000072FF9DF80D309BB21B029AB29DF80C30A2
:108410009BB21344ADF80E30BDF80E30184605B0CF
:108420005DF804FB00B585B00390029113468DF80A
:108430000730039B98B2029B99B20DF1070301220A
:10844000FFF7F3FE00BF05B05DF804FB00B587B091
:10845000039002911346ADF80630BDF80630DBB24A
:108460008DF81430BDF806301B0A9BB2DBB28DF8D4
:108470001530039B98B2029B99B205AB0222FFF71D
:10848000D4FE00BF07B05DF804FB00B587B00390D1
:1084900002910192002305930CE0019BD9B204AA3A
:1084A000059B13440A461A70019B1B0A0193059B06
:1084B00001330593059B032BEFDD039B98B2029BD1
:1084C00099B204AB0422FFF7B0FE00BF07B05DF81D
:1084D00004FB00B585B00190019B9BB21A460421B4
:1084E0002D20FFF7B3FF032206212D20FFF79AFF6F
:1084F000002206212D20FFF795FF0A212D20FFF7EE
:108500004DFF0390039B184605B05DF804FB08B5CA
:10851000002202212C20FFF785FF022202212C20BD
:10852000FFF780FF00BF08BD00B583B001906D224A
:1085300040F606012E20FFF775FF019B002B07D0A8
:1085400040F2076241F606012E20FFF77FFF06E0AA
:1085500041F2076241F606012E20FFF777FF00BFC8
:1085600003B05DF804FB08B50E2000F00FF84FF4DF
:10857000004206212D20FFF769FF012000F07CFB5F
:10858000012000F003F800BF08BD000000B585B071
:10859000019003AB022200213620FFF7A4FE019BCD
:1085A0000E2B00F28D8001A252F823F0FF8502000D
:1085B000E985020019860200C1860200C186020018
:1085C000C1860200C1860200338602005B8602007B
:1085D000C1860200C18602007986020089860200F7
:1085E00099860200B386020000238DF80C309DF8B6
:1085F0000D3023F00103DBB28DF80D3061E09DF802
:108600000C305BB223F003035BB243F001035BB2B7
:10861000DBB28DF80C3054E09DF80C305BB223F0E7
:1086200003035BB243F002035BB2DBB28DF80C30A4
:1086300047E09DF80C305BB223F04C035BB243F093
:1086400048035BB2DBB28DF80C309DF80D3063F05F
:108650007F03DBB28DF80D3033E09DF80C3023F052
:108660004C03DBB28DF80C309DF80D3003F07F0326
:10867000DBB28DF80D3024E09DF80D3043F002039D
:10868000DBB28DF80D301CE09DF80D3023F00203B5
:10869000DBB28DF80D3014E09DF80C305BB223F0A6
:1086A00030035BB243F020035BB2DBB28DF80C30D9
:1086B00007E001238DF80C3003238DF80D3000E026
:1086C00000BF03AB012200213620FFF7AEFD03AB54
:1086D0000133012201213620FFF7A7FD00BF05B0BD
:1086E0005DF804FB08B50020FFF750FF00220421CD
:1086F0003620FFF7ABFE00BF08BD000008B5FFF74E
:10870000F1FF002200212C20FFF7A0FE002206210D
:108710002C20FFF787FEFFF7FAFE00220321362008
:10872000FFF780FE012000F0A7FAF0220321362097
:10873000FFF778FE024B1B6800229A7600BF08BD47
:108740001820002000B585B003468DF807309DF94C
:10875000073003F01F035BB243F060035BB28DF898
:108760000F309DF80F301A460E212B20FFF75AFECE
:1087700000BF05B05DF804FB82B001904FF0A0434C
:10878000184602B0704700B585B001900846114602
:108790001A4603468DF803300B468DF80230134617
:1087A0008DF8013001AB1846FFF7E6FF03909DF806
:1087B00003209DF802305B001A439DF801309B00B6
:1087C0001A439DF818301B0242EA03019DF81C3041
:1087D0001B04019A1943039B02F5E07243F822102F
:1087E00000BF05B05DF804FB00B585B00390002321
:1087F0000193002300930023012201210398FFF736
:10880000C2FF00BF05B05DF804FB00B585B0039062
:108810000B468DF80B309DF80B30002201920022A0
:108820000092002200210398FFF7ADFF00BF05B0C2
:108830005DF804FB00B585B0019001AB1846FFF769
:108840009BFF0390019B012202FA03F31946039850
:1088500000F004F800BF05B05DF804FB82B00190A1
:108860000091019B009AC3F80C2500BF02B070472D
:1088700084B00190244B0393019B002B40D0234BE9
:108880001A680399019B00BF00BF00BF00BF00BF73
:1088900000BF00BF00BF8A422FD000BF00BF00BF93
:1088A00000BF00BF00BF00BF00BF00BF00BF00BFD0
:1088B00000BF00BF00BF00BF00BF00BF00BF00BFC0
:1088C00000BF00BF00BF00BF00BF00BF00BF00BFB0
:1088D00000BF00BF00BF00BF00BF00BF00BF00BFA0
:1088E00000BF00BF00BF00BF00BF00BF00BF00BF90
:1088F00000BF00BF00BF00BF00BF013BC3D1019359
:1089000000BF04B0704700BF0024F4000020002026
:1089100000B583B00190019B4FF47A7202FB03F320
:108920001846FFF7A5FF00BF03B05DF804FB000089
:1089300082B001900091034B01221A7000BF02B077
:10894000704700BF842100202DE9F04F8FB002AFA7
:108950003961FA60BB600346FB826B461E4600230A
:10896000FB62FB8AFA681344FB62F96A0B46013B1F
:10897000BB62002339607B604FF000024FF00003C0
:108980007868C300386843EA50733868C20000232F
:108990008A469B464FF000024FF000034FEACB039C
:1089A00043EA5A734FEACA02CB1DDB08DB00ADEB8A
:1089B000030D02AB00337B62F96A0B46013B3B625D
:1089C0000023884699464FF000024FF000034FEA1B
:1089D000C90343EA58734FEAC80200230C461D46F8
:1089E0004FF000024FF00003EB0043EA5473E20043
:1089F000CB1DDB08DB00ADEB030D02AB0033FB61ED
:108A0000FA6A0021786A02F084FDFA6A0021F869A6
:108A100002F07FFD7B6ABB61FB8A1A463969B8693F
:108A200002F04EFDFB8ABA691344BB61FA6800216B
:108A3000B86902F06EFD134B00221A70FB6ADAB2BD
:108A4000FB6ADBB20093FB69796A0F48FCF78AF98D
:108A500000BF0C4B1B78DBB283F00103DBB2002BB1
:108A6000F7D1FB8AFA691344BB61FA68B969B8683F
:108A700002F026FD0023B54618463437BD46BDE852
:108A8000F08F00BF84210020F0C502002DE9F04FD7
:108A90008FB002AF3961FA60BB600346FB826B4660
:108AA0001E460023FB62FB8AFA681344FB62F96AE4
:108AB0000B46013BBB62002339607B604FF0000234
:108AC0004FF000037868C300386843EA5073386891
