:020000022000DC
:10300000000001209F32020045320200C13A020056
:10301000493202004B3202004D3202000000000033
:10302000000000000000000000000000DDD30200EE
:10303000513202000000000001D4020055320200AB
:103040006961020059320200DD5D0200316F020049
:10305000194B020061320200214002006532020079
:1030600067320200693202006B3202006D320200E8
:103070006F320200713202007332020075320200B8
:1030800077320200E5D202007B3202007D3202007C
:103090007F32020081320200D5A302008532020095
:1030A00087320200893202008B3202008D32020028
:1030B0008F32020091320200000000000000000088
:1030C00093320200953202009732020099320200D8
:0830D0009B3202009D32020058
:1030D800374938480A1A02D0072291438D463649A3
:1030E80036480A1A06D00722914381F3098802223A
:1030F80082F3148832483349334A00F048F8334899
:103108003349344A00F043F833483449344A00F02C
:103118003EF834483449354A00F039F834483549DE
:10312800354A00F034F835483549364A00F02FF86A
:1031380035483649364A00F02AF836483649374A7B
:1031480000F025F836483749002200F02BF83648B9
:103158003649002200F026F835483649091A082968
:1031680003DB0022026004300160224822498842C1
:1031780005D00268043003B4904703BCF7E7002089
:103188008646EC46002000212B4A9047FEE78842FD
:1031980007D0521A05D0037801300B700131013A7B
:1031A800F9D17047884202D002700130FAE77047BF
:1031B8000000012000F8002000000120000001208C
:1031C800D01F030014200020EC200020EC1903007D
:1031D8000020002014200020B0320200B03202008B
:1031E800A4190300D01F030014200020142000207D
:1031F800001A0300001A0300001A0300001A030053
:10320800001A0300001A0300001A0300001A030042
:10321800D01F0300A8200300EC200020EC20002091
:10322800EC2000209C3C00209C3C0020A03C00207E
:10323800A03C0020A04000203D3A0200FEE7FEE747
:10324800FEE7FEE7FEE7FEE7FEE7FEE7FEE7FEE74E
:10325800FEE7FEE7FEE7FEE7FEE7FEE7FEE7FEE73E
:10326800FEE7FEE7FEE7FEE7FEE7FEE7FEE7FEE72E
:10327800FEE7FEE7FEE7FEE7FEE7FEE7FEE7FEE71E
:10328800FEE7FEE7FEE7FEE7FEE7FEE7FEE7FEE70E
:10329800FEE7FEE7FEE70348854600F02DF8FFF756
:0832A80017BF70470000012070
:1032B00000487047943C0020704770477047704743
:1032C000BFF34F8F00BF074BDB6803F4E062054993
:1032D000054B1343CB60BFF34F8F00BF00BF00BF50
:1032E000FCE700BF00ED00E00400FA05024B034AD2
:1032F0001A6000BF704700BF142000200090D00368
:1033000008B500F05DF90346002B06D09B4B1B6807
:103310001B0A9B4A03F01F03136000F07DF903466C
:10332000002B02D0974B984A1A6000F091F903469F
:10333000002B06D0954B1B685B0B954A03F00703E7
:10334000136000F0B1F90346002B05D0914BDB6808
:10335000904A23F08073D36000F0C2F90346002B3B
:103360000ED04FF080430022C3F80C214FF0804371
:103370000022C3F810214FF080430022C3F8382503
:1033800000F0DAF90346002B02D0834B03221A60C7
:1033900000F0EEF90346002B0BD0804B05221A609B
:1033A0007F4B01221A607F4B00221A607E4B3F2226
:1033B0001A6000F0F9F90346002B76D04FF08053E5
:1033C0007A4AD3F80434C2F820354FF08053774A54
:1033D000D3F80834C2F824354FF08053734AD3F839
:1033E0000C34C2F828354FF08053704AD3F81034AB
:1033F000C2F82C354FF080536C4AD3F81434C2F81D
:1034000030354FF08053694AD3F81834C2F8343558
:103410004FF08053654AD3F81C34C2F840354FF062
:103420008053624AD3F82034C2F844354FF08053B9
:103430005E4AD3F82434C2F848354FF080535B4AD3
:10344000D3F82834C2F84C354FF08053574AD3F89C
:103450002C34C2F850354FF08053544AD3F83034EE
:10346000C2F854354FF08053504AD3F83434C2F880
:1034700060354FF080534D4AD3F83834C2F8643584
:103480004FF08053494AD3F83C34C2F868354FF0C6
:103490008053464AD3F84034C2F86C354FF080531D
:1034A000424AD3F84434C2F8703500F099F9034623
:1034B000002B05D03E4B1B683E4A03F04F031360C0
:1034C00000F0BAF90346002B0DD04FF08043D3F83B
:1034D000003403F00103002B05D04FF080436FF060
:1034E0000102C3F80024344BD3F88830324A43F445
:1034F0007003C2F88830BFF34F8F00BFBFF36F8FE8
:1035000000BF4FF01023D3F80032002B05DB4FF043
:103510001023D3F80432002B2BDA284B0122C3F8F6
:10352000042500BF254BD3F80034002BFAD04FF010
:1035300010231522C3F8002200BF204BD3F800341B
:10354000002BFAD04FF010231522C3F8042200BF3D
:103550001A4BD3F80034002BFAD0184B0022C3F8D2
:10356000042500BF154BD3F80034002BFAD0FFF729
:10357000A7FEFFF7BBFE00BF08BD00BF240300107D
:103580004035014074C007400DF0ADBA4402001050
:103590003C050040F0ED00E0A00500401056004062
:1035A00088560040185600401456004000C00040A5
:1035B00058020010E40E004000ED00E000E0014081
:1035C000124B1B68DBB2062B1DD1114B1B6803F09D
:1035D0000F03002B17D10F4B1B6803F0F003302BA8
:1035E00001D1012310E00B4B1B6803F0F003402BCB
:1035F00001D1012308E0074B1B6803F0F003502BB7
:1036000001D1012300E0002318467047E00F00F0CD
:10361000E40F00F0E80F00F00A4B1B68DBB2062B4A
:103620000DD1094B1B6803F00F03002B07D1074B8B
:103630001B6803F0F003302B01D1012300E00023CD
:1036400018467047E00F00F0E40F00F0E80F00F0BC
:10365000124B1B68DBB2062B1DD1114B1B6803F00C
:103660000F03002B17D10F4B1B6803F0F003302B17
:1036700001D1012310E00B4B1B6803F0F003402B3A
:1036800001D1012308E0074B1B6803F0F003502B26
:1036900001D1012300E0002318467047E00F00F03D
:1036A000E40F00F0E80F00F00A4B1B68DBB2062BBA
:1036B0000DD1094B1B6803F00F03002B07D1074BFB
:1036C0001B6803F0F003302B01D1012300E000233D
:1036D00018467047E00F00F0E40F00F0E80F00F02C
:1036E000124B1B68DBB2062B1DD1114B1B6803F07C
:1036F0000F03002B17D10F4B1B6803F0F003302B87
:1037000001D1012310E00B4B1B6803F0F003402BA9
:1037100001D1012308E0074B1B6803F0F003502B95
:1037200001D1012300E0002318467047E00F00F0AC
:10373000E40F00F0E80F00F00A4B1B68DBB2062B29
:103740000DD1094B1B6803F00F03002B07D1074B6A
:103750001B6803F0F003302B01D1012300E00023AC
:1037600018467047E00F00F0E40F00F0E80F00F09B
:103770000A4B1B68DBB2062B0DD1094B1B6803F00B
:103780000F03002B07D1074B1B6803F0F003302B0E
:1037900001D1012300E0002318467047E00F00F03C
:1037A000E40F00F0E80F00F00A4B1B68DBB2062BB9
:1037B0000DD1094B1B6803F00F03002B07D1074BFA
:1037C0001B6803F0F003502B01D1012300E000231C
:1037D00018467047E00F00F0E40F00F0E80F00F02B
:1037E000124B1B68DBB2062B1DD1114B1B6803F07B
:1037F0000F03002B17D10F4B1B6803F0F003302B86
:1038000001D1012310E00B4B1B6803F0F003402BA8
:1038100001D1012308E0074B1B6803F0F003502B94
:1038200001D1012300E0002318467047E00F00F0AB
:10383000E40F00F0E80F00F0124B1B68DBB2062B20
:103840001DD1114B1B6803F00F03002B17D10F4B39
:103850001B6803F0F003302B01D1012310E00B4B68
:103860001B6803F0F003402B01D1012308E0074B54
:103870001B6803F0F003502B01D1012300E000236B
:1038800018467047E00F00F0E40F00F0E80F00F07A
:1038900082B001904FF0A043184602B0704700B5C7
:1038A00085B00190084611461A4603468DF803304C
:1038B0000B468DF8023013468DF8013001AB1846E7
:1038C000FFF7E6FF03909DF803209DF802305B00B0
:1038D0001A439DF801309B001A439DF818301B02D3
:1038E00042EA03019DF81C301B04019A1943039B13
:1038F00002F5E07243F8221000BF05B05DF804FB4A
:1039000000B585B003900B468DF80B309DF80B3059
:103910000022019200220092002200210398FFF76A
:10392000BEFF00BF05B05DF804FB000084B001904D
:10393000244B0393019B002B40D0234B1A6803991F
:10394000019B00BF00BF00BF00BF00BF00BF00BFA2
:1039500000BF8A422FD000BF00BF00BF00BF00BF22
:1039600000BF00BF00BF00BF00BF00BF00BF00BF5F
:1039700000BF00BF00BF00BF00BF00BF00BF00BF4F
:1039800000BF00BF00BF00BF00BF00BF00BF00BF3F
:1039900000BF00BF00BF00BF00BF00BF00BF00BF2F
:1039A00000BF00BF00BF00BF00BF00BF00BF00BF1F
:1039B00000BF00BF00BF013BC3D1019300BF04B0F3
:1039C000704700BF0024F4001420002000B583B02D
:1039D0000190019B4FF47A7202FB03F31846FFF744
:1039E000A5FF00BF03B05DF804FB08B5002100206F
:1039F00009F0C0FDFAE7000008B500211320FFF729
:103A00007FFF07F0CFFD07F0E1FD012006F076FD16
:103A10000346B3F1FF3F00D1FEE707F0FBFD064888
:103A200006F036FE44F2480006F0B4FF44F24800C7
:103A300006F0C1FF00BF08BD1820002000B587B008
:103A400000F026F9002000F0EBF809F00BFD0BF078
:103A50004BF81420FFF7BAFF0BF06CFB1420FFF7B4
:103A6000B5FF0BF011FD05900BF048FD03460F4A22
:103A70001360FFF7C1FF00230393002302930C4B55
:103A800001930123009300234FF4007209490A486F
:103A900008F05CFA09480CF097FF002000F0D2F81B
:103AA00008F0FEFA0F2003F04FFAFBE7EC200020AD
:103AB000F0200020001A0300EB390200081A03006E
:103AC00010B582B0EFF308831C4623460193019B97
:103AD0001B6B0093009904480CF054FF03480CF052
:103AE00073FF00BF02B010BD2C1A03004C1A030074
:103AF00082B001904FF0A043184602B0704700B565
:103B000085B00190084611461A4603468DF80330E9
:103B10000B468DF8023013468DF8013001AB184684
:103B2000FFF7E6FF03909DF803209DF802305B004D
:103B30001A439DF801309B001A439DF818301B0270
:103B400042EA03019DF81C301B04019A1943039BB0
:103B500002F5E07243F8221000BF05B05DF804FBE7
:103B600000B585B003900023019300230093002348
:103B7000012201210398FFF7C2FF00BF05B05DF8E5
:103B800004FB00B585B0019001AB1846FFF7B0FF0C
:103B90000390019B012202FA03F31946039800F0F7
:103BA0002AF800BF05B05DF804FB00B585B00190B0
:103BB00001AB1846FFF79CFF0390019B012202FA1C
:103BC00003F31946039800F020F800BF05B05DF834
:103BD00004FB00B583B001900091009B002B03D142
:103BE0000198FFF7E2FF02E00198FFF7CAFF00BF6C
:103BF00003B05DF804FB82B001900091019B009A34
:103C0000C3F8082500BF02B0704782B00190009150
:103C1000019B009AC3F80C2500BF02B0704700005A
:103C200000B583B00190064A019B13441B78002124
:103C30001846FFF7CEFF00BF03B05DF804FB00BFDE
:103C4000501A030000B583B00190064A019B13444B
:103C50001B7801211846FFF7BCFF00BF03B05DF8D9
:103C600004FB00BF501A030000B583B0002301938A
:103C700005E00198FFF7E6FF019B01330193019BEB
:103C8000032BF6D900BF00BF03B05DF804FB0000B2
:103C900000B583B00023019309E0094A019B134456
:103CA0001B781846FFF75CFF019B01330193019BD2
:103CB000032BF2D9FFF7D8FF00BF03B05DF804FB78
:103CC000501A030082B003468DF807309DF8073084
:103CD00003F01F0205499DF907305B09012000FA36
:103CE00002F241F8232000BF02B0704700E100E07B
:103CF00082B003468DF807309DF8073003F01F02AD
:103D000006499DF907305B09012000FA02F2603391
:103D100041F8232000BF02B0704700BF00E100E07F
:103D200082B0034600918DF807309DF90730002BD3
:103D30000CDA009BDAB20C499DF8073003F00F0350
:103D4000043B5201D2B20B441A7609E0009BDAB26E
:103D500006499DF907305201D2B20B4483F8002383
:103D600000BF02B0704700BF00ED00E000E100E0DE
:103D700000B583B003460A468DF8073013468DF828
:103D800006309DF806209DF9073011461846FFF7CA
:103D9000C7FF9DF907301846FFF7AAFF9DF90730C6
:103DA0001846FFF78FFF00BF03B05DF804FB00B5B6
:103DB00083B00346ADF80630BDF80630184600F073
:103DC00026F803461B68012B0CBF01230023DBB23E
:103DD000184603B05DF804FB00B585B00346ADF8A6
:103DE0000630BDF80630184600F011F803461A46B2
:103DF00000231360BDF80630184600F008F80346AB
:103E00001B680393039B00BF05B05DF804FB82B001
:103E10000346ADF80630BDF8063003F1804303F5E4
:103E2000C043184602B0704782B00190034BD3F8EC
:103E30000423019B1340184602B070470060004005
:103E400082B00190054A019B03F5A27352F823301A
:103E50001B0A03F01F03184602B0704700600040C1
:103E600082B00190064A019B03F5A27352F82330F9
:103E70001B0C03F00303DBB2184602B0704700BF0F
:103E80000060004082B001904FF0A043184602B09D
:103E9000704700B585B001900B468DF8033001AB3B
:103EA0001846FFF7EFFF0390019A039B02F5E072BB
:103EB00053F82230019A23F44031039B02F5E0725B
:103EC00043F82210019A039B02F5E07253F8223066
:103ED0009DF8032012041146019A1943039B02F531
:103EE000E07243F8221000BF05B05DF804FB00B596
:103EF00085B0019001AB1846FFF7C4FF0390019A0B
:103F0000039B02F5E07253F822301B0C03F003030D
:103F1000DBB2184605B05DF804FB82B00190019B4E
:103F2000D3F81035184602B0704700B587B003903B
:103F3000029101924FF0A0430493039B059311E07B
:103F4000059B9B0018336B4453F8083C1846FFF759
:103F5000E4FF0246019B1A60019B04330193059B19
:103F600001330593039A029B1344059A9A42E7D3BF
:103F700000BF00BF07B05DF804FB84B00190009162
:103F8000009B0393019BDB080293019B03F0070353
:103F900001930122019B02FA03F30399029A0A4456
:103FA00012781340184604B0704784B00190009115
:103FB000009B0393019BDB080293019B03F0070323
:103FC0000193039A029B13441B785AB20121019B6F
:103FD00001FA03F35BB2134359B2039A029B1344F1
:103FE000CAB21A7000BF04B07047000082B00190DE
:103FF000044A019B1344303393F90030184602B051
:10400000704700BFF420002082B00190034A019B5A
:1040100052F82330184602B0704700BFF420002049
:1040200000B595B000231393002303934FF48073DE
:10403000ADF84630012310930023129321E0BDF820
:1040400046301846FFF7B3FE0346002B0ED01098FB
:10405000FFF7EAFE0346002B08D0BDF846301846AD
:10406000FFF7BAFE139A109B13431393109B5B0048
:104070001093BDF846300433ADF84630129B01333F
:104080001293129B072BDAD94FF4BE70FFF78FFE05
:104090000346002B0DD04FF4BE70FFF79DFE139B1F
:1040A00043F00043139303AB1A4601210020FFF7AE
:1040B0003CFF139BDBB2002B29D00123109300237C
:1040C000129321E0109A139B1340002B16D01298E4
:1040D000FFF7B6FE0D901298FFF7C2FE03468DF86B
:1040E00033301298FFF790FF0B900B9B002B05D0FD
:1040F0009DF833200B9B11460D989847109B5B0051
:104100001093129B01331293129B072BDAD9139B46
:10411000002B80F2EE8000238DF83B3000230293C9
:1041200000230F930AE00F9B9B0050336B444FF02A
:10413000FF3243F84C2C0F9B01330F930F9B002B46
:10414000F1D000238DF83B300023129378E06B4AC6
:10415000129B1344503393F900308DF82B309DF8A7
:104160002B3023F0C0030993644A129B134450334D
:1041700093F90030B3F1FF3F5FD001AB19460998C6
:10418000FFF7FBFE0346002B57D09DF82B309B0911
:104190008DF823300998FFF729FF03461846FFF7EB
:1041A00033FF0790079B002B03D19DF82330032B8F
:1041B00043D19DF82330032B04D102AB1946099853
:1041C000FFF7F3FE0998FFF792FE03468DF81B30C8
:1041D00003AB19460998FFF7D0FE0590059B002B0D
:1041E00003D09DF81B30022B06D0059B002B24D159
:1041F0009DF81B30032B20D19DF82330032B13D1C6
:104200009DF81B30022B01D1032300E002238DF81F
:1042100013309DF8133019460998FFF73AFE9DF8C0
:104220003B3001338DF83B30079B002B05D09DF8C8
:104230002320079B114609989847129B013312933C
:10424000129B032B83D99DF83B30002B4CD00123CC
:104250008DF83A306B461A4601210020FFF765FEC3
:1042600000230F9314E00F9B9B0050336B4453F8D3
:10427000502C0F9B9B0050336B4453F8443C9A42A4
:1042800003D000238DF83A3005E00F9B01330F93E4
:104290000F9B002BE7D09DF83A30002B03D0002372
:1042A0008DF83B3020E000230F931AE00F9B9B001A
:1042B00050336B4453F8502C0F9B9B0050336B448E
:1042C00043F8442C0F9B9B0050336B4453F8482C0D
:1042D0000F9B9B0050336B4443F84C2C0F9B0133D6
:1042E0000F930F9B002BE1D09DF83B30002B7FF408
:1042F00028AF00BF15B05DF804FB00BFF42000201C
:1043000082B003468DF807309DF8073003F01F0296
:1043100006499DF907305B09012000FA02F22033BB
:1043200041F8232000BF02B0704700BF00E100E069
:1043300084B001900B46ADF80230BDF80230019A0E
:10434000134400221A60BDF80230019A13441B681E
:104350000393039B00BF04B0704782B001900B46EB
:10436000ADF80230BDF80230019A13441B68002BEF
:1043700014BF01230023DBB2184602B0704782B09D
:1043800001900091019B009AC3F8042300BF02B082
:10439000704782B001900091019B009AC3F80823F6
:1043A00000BF02B0704782B00190019B0122C3F8A8
:1043B000002500BF02B0704782B00190019B00222F
:1043C000C3F8002500BF02B0704784B0039002918B
:1043D00001920093039B029AC3F80825039B019A5C
:1043E000C3F80C25039B009AC3F8102500BF04B046
:1043F000704782B001900B468DF803309DF8032082
:10440000019BC3F81C2500BF02B0704782B0019029
:10441000019BD3F81835DBB2184602B0704782B062
:1044200001900091009A019BC3F8242500BF02B0BF
:10443000704784B001900B468DF8033013468DF819
:1044400002309DF80230002B14BF01230023DBB2A1
:1044500003939DF80330032B10D0032B13DC012BA7
:1044600002D0022B05D00EE0039B43F0020303931E
:104470000AE0039B43F00403039305E0039B43F02E
:104480000603039300E000BF019B039AC3F8542581
:1044900000BF04B0704700B583B003468DF8073005
:1044A0009DF907301846FFF72BFF00BF03B05DF8FA
:1044B00004FB82B001904FF0A043184602B0704751
:1044C00000B585B00190084611461A4603468DF89E
:1044D00003300B468DF8023013468DF8013001ABE6
:1044E0001846FFF7E6FF03909DF803209DF8023081
:1044F0005B001A439DF801309B001A439DF8183069
:104500001B0242EA03019DF81C301B04019A194367
:10451000039B02F5E07243F8221000BF05B05DF87E
:1045200004FB00B585B003900023019300230093A2
:104530000023012201210398FFF7C2FF00BF05B04D
:104540005DF804FB00B585B003900B468DF80B3089
:104550009DF80B30002201920022009200220021DF
:104560000398FFF7ADFF00BF05B05DF804FB00B591
:1045700085B0019001AB1846FFF79BFF0390019BAC
:10458000012202FA03F31946039800F018F800BF5D
:1045900005B05DF804FB00B585B0019001AB18468D
:1045A000FFF787FF0390019B012202FA03F31946EC
:1045B000039800F00EF800BF05B05DF804FB82B070
:1045C00001900091019B009AC3F8082500BF02B03A
:1045D000704782B001900091019B009AC3F80C25AE
:1045E00000BF02B07047000000B58DB00590049187
:1045F00003920293059B5B791A461346DB00134432
:104600009B005A4A13440993099B1B7F002B03D03C
:1046100008230793079BA4E0099B039A1A60099B50
:10462000029A5A60049B1B7B012B05D8049B1B78C4
:104630001846FFF7B0FF04E0049B1B781846FFF70D
:1046400096FF049B1B7818460023019300230093D8
:10465000002300220121FFF733FF049B5B78FF2B2F
:1046600009D0049B5B780B930B98FFF794FF0B9892
:10467000FFF757FF02E04FF0FF330B93049B9B784B
:10468000FF2B07D0049B9B780A9301210A98FFF720
:1046900059FF02E04FF0FF330A93049BDB78FF2BB6
:1046A00009D0049BDB781846FFF761FF049BDB7899
:1046B0001846FFF736FF059B5B791946049BD878AF
:1046C0002A4A0B46DB000B449B0013441E33024670
:1046D0001A70059B1B680893049B1B7819460A9B5C
:1046E0000B9A0898FFF771FE049B9B68194608987F
:1046F000FFF795FE049B197B049B5B7B1A46089889
:10470000FFF797FE059B5B791946049B5879174A7A
:104710000B46DB000B449B0013441F3302461A7008
:10472000099B1B68002B03D004210898FFF727FE84
:104730000898FFF738FE099B1B68002B08D0059BE3
:1047400093F90420049B1B7919461046FFF710FBD0
:10475000099B00225A77099B01221A7700230793AD
:10476000079B18460DB05DF804FB00BF4C210020EC
:1047700000B585B00190019B5B791A461346DB00BA
:1047800013449B00114A13440393039B1B68002BA3
:1047900005D0019B93F904301846FFF77CFE019B7E
:1047A0001B680293039B1B68002B04D04FF0FF3162
:1047B0000298FFF7EEFD0298FFF7FEFD039B002233
:1047C0001A7700BF05B05DF804FB00BF4C21002044
:1047D00000B589B003900291009313468DF807301D
:1047E000029B0493009B06939DF807308DF81430CC
:1047F0009DF828308DF81C3004AB00221946039830
:1048000000F00EF90346184609B05DF804FB00B548
:1048100083B00190019B9B7FFF2B04D0019B9B7F6A
:104820001846FFF7A4FE019B00225A77019B002245
:104830001A72019B1B68019A02F10800019A5268E2
:104840001146984700BF03B05DF804FB00B585B082
:10485000019000910198FFF7D9FD03468DF80D30C6
:10486000009B93F82020009B1B7E9A4209D2009B5C
:104870005B69009A92F8202013449DF80D20D2B273
:104880001A70009B93F820300133DAB2009B83F852
:104890002020009B93F820309BB20133ADF80E30FE
:1048A000009B93F8213003F00403DBB2002B17D0F8
:1048B000009B1B7C9BB2BDF80E209A4204D2BDF82F
:1048C0000E30DAB2009B1A74009B1B7E9BB2BDF8BF
:1048D0000E209A4204D2BDF80E30DAB2009B1A764E
:1048E000009B1B7C9BB2BDF80E209A420BD2009B12
:1048F000DA68BDF80E3013441B7819460198FFF7AB
:1049000078FD012322E0009B1B7E9BB2BDF80E20A8
:104910009A4207D2009BDB7F19460198FFF769FD99
:10492000012313E0009B93F82020009B1B7C9A42FC
:1049300006D3009B93F82020009B1B7E9A4201D255
:10494000012300E0002303F00103DBB2184605B0A9
:104950005DF804FB00B585B0039002910192029BC3
:10496000002283F8202004210398FFF712FD4FF462
:1049700084710398FFF7DCFC019B1B79002B03D0AB
:10498000019B1B681B7801E0029BDB7F19460398A3
:10499000FFF72FFD019B1B79012B08D9019B1B6899
:1049A00001331B7819460398FFF723FD09E0019BAB
:1049B0001B7B012B05D9029BDB7F19460398FFF770
:1049C00018FD029B1B68002B04D004210398FFF7FD
:1049D000D6FC20E000BF4FF484710398FFF7BDFCC4
:1049E000034683F00103DBB2002BF4D14FF4847152
:1049F0000398FFF79DFC02990398FFF727FF0346F2
:104A0000002BE7D1029B9B7FFF2B04D0029B9B7F57
:104A10001846FFF7ACFD00BF05B05DF804FB0000D1
:104A200010B586B0039002910192039B5B791A4600
:104A30001346DB0013449B00294A134404930023CC
:104A40000593049B5B7FDBB2002B03D011230593FE
:104A5000059B42E0049B1B68002B07D0019B03F0E1
:104A60001403002B02D1049B01225A77049B029A63
:104A700003F10C0413460FCB84E80F00049A92F85C
:104A800021306FF3000382F82130049A92F821302C
:104A90006FF3410382F82130049A92F821306FF3CA
:104AA000820382F82130049B9B7FFF2B04D0049B60
:104AB0009B7F1846FFF76FFD019B002B05D0049BE1
:104AC00000225A770623059306E0039B1B68029A8F
:104AD00004991846FFF73EFF059B184606B010BD27
:104AE0004C21002000B583B0019000914FF48471F7
:104AF0000198FFF71DFC00990198FFF7A7FE0346F8
:104B000083F00103DBB2002B02D00098FFF77FFE99
:104B100000BF03B05DF804FB00B583B0054B019303
:104B200001994FF04020FFF7DDFF00BF03B05DF8B3
:104B300004FB00BF4C21002084B001900B46ADF86F
:104B40000230BDF80230019A134400221A60BDF809
:104B50000230019A13441B680393039B00BF04B007
:104B6000704782B001900B46ADF80230BDF80230BC
:104B7000019A13441B68002B14BF01230023DBB2EE
:104B8000184602B0704782B001900091019B009AD4
:104B9000C3F8042300BF02B0704782B001900091B7
:104BA000019BD3F80423009B1340002B14BF012367
:104BB0000023DBB2184602B0704782B0019000912A
:104BC000019B009AC3F8082300BF02B0704784B06D
:104BD0000190019BD3F880340393019B039AC3F89F
:104BE0008024039B184604B0704782B00190019B5B
:104BF0000422C3F8002500BF02B0704784B00390C0
:104C000002910192039B019AC3F81425039B029A17
:104C1000C3F80C2500BF04B0704784B00390029124
:104C20000192039B029AC3F80825039B019AC3F8DB
:104C3000102500BF04B0704782B00190019BD3F8EB
:104C40001835DBB2184602B0704782B001900B46AF
:104C50008DF803309DF80320019BC3F81C2500BF8D
:104C600002B0704782B001900B468DF803309DF87A
:104C70000330019A134401221A6000BF02B070474A
:104C800082B001900B468DF8033013468DF8023048
:104C90009DF803209DF802301343DBB21A46019BB6
:104CA000C3F86C2500BF02B0704782B0019000913C
:104CB000019B009AC3F8242500BF02B0704784B05E
:104CC00001900B46ADF80230BDF80230019A134452
:104CD00000221A60BDF80230019A13441B68039346
:104CE000039B00BF04B0704782B001900B46ADF843
:104CF0000230BDF80230019A13441B68002B14BF28
:104D000001230023DBB2184602B0704782B0019045
:104D10000091019BD3F80022009B1A43019BC3F82A
:104D2000002200BF02B0704782B001900091019B49
:104D3000D3F80022009BDB431A40019BC3F80022FA
:104D400000BF02B0704782B001900091019B009AB1
:104D5000C3F8042300BF02B0704782B001900091F5
:104D6000019B009AC3F8082300BF02B0704784B0CB
:104D70000190019BD3F880340393019B039AC3F8FD
:104D80008024039B184604B0704782B00190019BB9
:104D90000822C3F8002500BF02B0704784B003901A
:104DA00002910192039B029AC3F80C25039B019A7E
:104DB000C3F8142500BF04B0704784B0039002917B
:104DC0000192039B029AC3F80825039B019AC3F83A
:104DD000102500BF04B0704782B001900B468DF8DB
:104DE00003309DF80330019A134401221A6000BF7A
:104DF00002B0704782B001900B468DF80330134625
:104E00008DF802309DF803209DF802301343DBB289
:104E10001A46019BC3F86C2500BF02B0704782B0F0
:104E200001900091019B009AC3F8242500BF02B0B5
:104E3000704784B00390029113468DF80730029AB0
:104E4000039BC3F844259DF80720039BC3F848251E
:104E500000BF04B0704782B00190019BD3F84C357D
:104E6000184602B0704784B00390029113468DF843
:104E70000730029A039BC3F834259DF80720039B53
:104E8000C3F8382500BF04B0704782B00190019B81
:104E9000D3F83C35184602B0704784B00190019BAE
:104EA0001B0B8DF80F309DF90F30184604B070477A
:104EB00082B00190019B03F06043B3F1005F0CBF2F
:104EC00001230023DBB2184602B0704782B0019084
:104ED0004FF0A043184602B0704700B585B001906E
:104EE000084611461A4603468DF803300B468DF8E6
:104EF000023013468DF8013001AB1846FFF7E6FF8C
:104F000003909DF803209DF802305B001A439DF842
:104F100001309B001A439DF818301B0242EA03013E
:104F20009DF81C301B04019A1943039B02F5E072A3
:104F300043F8221000BF05B05DF804FB00B585B052
:104F400003900023019300230093002301220121F9
:104F50000398FFF7C2FF00BF05B05DF804FB00B582
:104F600085B003900B468DF80B309DF80B30002276
:104F7000019200220092002200210398FFF7ADFF6A
:104F800000BF05B05DF804FB00B585B0019001AB32
:104F90001846FFF79BFF0390019B012202FA03F3DF
:104FA0001946039800F004F800BF05B05DF804FB53
:104FB00082B001900091019B009AC3F8082500BFC0
:104FC00002B0704700B583B001900091009B1B6850
:104FD000B3F1FF3F09D0009B1B681846FFF7D4FFD1
:104FE000009B1B681846FFF7A9FF009B5B68B3F1A5
:104FF000FF3F05D0009B5B6800211846FFF7AFFF1D
:10500000019B1B79464A5B0113441C331B78002B20
:1050100041D0019B1A68009B9B6919461046FFF717
:10502000FEFE019B1868009B597D009B1B7D1A4664
:10503000FFF7E0FE019B1868009B1968009B5B6806
:105040001A46FFF7ABFE009B1B7D012B64D1009B32
:105050009B68B3F1FF3F05D0009B9B680021184679
:10506000FFF77DFF009BDB68B3F1FF3F09D0009B9A
:10507000DB681846FFF788FF009BDB681846FFF7E0
:105080005DFF019B1868009BD968009B9B681A46CE
:10509000FFF793FE40E0019B1A68009B9B6919464D
:1050A0001046FFF702FE019B1868009B597D009B8C
:1050B0001B7D1A46FFF7E4FD019B1868009B1968E9
:1050C000009B5B681A46FFF799FD009B1B7D012B37
:1050D00022D1009B9B68B3F1FF3F05D0009B9B68EA
:1050E00000211846FFF73BFF009BDB68B3F1FF3F51
:1050F00009D0009BDB681846FFF746FF009BDB6882
:105100001846FFF71BFF019B1868009BD968009B9E
:105110009B681A46FFF781FD00BF03B05DF804FBF2
:105120007021002000B583B001900B468DF803304C
:10513000019B1B792D4A5B0113441C331B78002B08
:105140002FD0019B1B684FF488711846FFF7B7FDFD
:10515000019B1B684FF490711846FFF7B0FD019B4F
:105160001B684FF492711846FFF7A9FD019B1B685D
:105170004FF4A2711846FFF7A2FD019B1B681C4962
:105180001846FFF7E0FD019B1B681846FFF785FEF8
:1051900003461A469DF8033019461046FEF7E8FD0F
:1051A00020E0019B1B684FF48E711846FFF7C4FC8A
:1051B000019B1B684FF4A2711846FFF7BDFC019BD1
:1051C0001B680C491846FFF7DEFC019B1B6818465C
:1051D000FFF763FE03461A469DF803301946104652
:1051E000FEF7C6FD00BF03B05DF804FB7021002090
:1051F000100302008000020000B583B00190019B03
:105200001B790B4A5B0113441C331B78002B05D020
:10521000019B1B681846FFF7B8FD04E0019B1B6863
:105220001846FFF7E2FC00BF03B05DF804FB00BFC7
:105230007021002000B587B0039002910192039B7A
:105240001B795B011E4A1344059300230493059BBD
:10525000DB7E002B03D008230493049B2BE0029BEE
:105260005A7F059B1A7702990398FFF7ABFE059BBF
:10527000019A5A60029B1A69059B1A60059B5B683C
:10528000002B05D0029B1B7F19460398FFF74AFFAE
:105290000398FFF7B1FF059B0022DA75059B0022FA
:1052A0001A76059B00229A75059B0122DA76059BEA
:1052B00000229A76049B184607B05DF804FB00BFF5
:1052C0007021002000B585B0019000914FF48E71DF
:1052D0000198FFF731FC009B9B68009A928A92B27A
:1052E00013441B788DF80F30009B9B8A9BB20133CF
:1052F0009AB2009B9A829DF80F3019460198FFF7E9
:10530000A4FC00BF05B05DF804FB000000B585B04B
:105310000190019B1B795B01344A134402930023E3
:105320000393019B1B684FF48E711846FFF704FC32
:10533000019B1B6808211846FFF794FC019B1B6822
:1053400002991846FFF7BEFF029B5B68002B48D10D
:105350001FE000BF019B1B684FF48E711846FFF7DA
:1053600000FC034683F00103DBB2002B05D0029B57
:105370009B8A9BB2B3F5807FECD1029B9B8A9BB248
:10538000B3F5807F05D0019B1B6802991846FFF793
:1053900099FF029B9B8A9AB2029B9B7D9BB29A4289
:1053A000D7D3029B9B8A9BB2B3F5807F02D10F2398
:1053B000039313E000BF019B1B684FF48E711846E6
:1053C000FFF7CFFB034683F00103DBB2002BF2D1E2
:1053D000019B1B680C211846FFF744FC029B00222E
:1053E0009A75039B184605B05DF804FB70210020F8
:1053F00000B587B00190019B1B795B012A4A1344D9
:10540000049300230593019B1B684FF49071184689
:10541000FFF755FC019B1B684FF4AC711846FFF772
:105420004EFC019B1868049B9968049B9B7D1A465F
:10543000FFF7FFFC019B1B6808211846FFF7CCFC17
:10544000049B5B68002B2AD1019B1B684FF4907171
:105450001846FFF749FC03468DF80F30019B1B6887
:105460004FF4AC711846FFF73FFC03468DF80E3041
:105470009DF80F3083F00103DBB2002B06D09DF8BE
:105480000E3083F00103DBB2002BDDD19DF80E302E
:10549000002B01D00F230593049B00229A75059BD6
:1054A000184607B05DF804FB7021002000B587B0F6
:1054B0000390029113468DF80730039B1B795B0123
:1054C000214A13440593039B1B791F4A5B01134434
:1054D0001C331B78002B0CD00298FFF7E9FC034625
:1054E00083F00103DBB2002B03D010230493049B51
:1054F00025E0039800F02AF80346002B03D011237F
:105500000493049B1BE0059B9DF807209A75059B5F
:10551000029A9A60059B00229A82039B1B790A4A91
:105520005B0113441C331B78002B04D00398FFF756
:105530005FFF034603E00398FFF7E8FE03461846C3
:1055400007B05DF804FB00BF7021002082B001901D
:10555000019B1B79064A5B01134416331B78002B11
:1055600014BF01230023DBB2184602B0704700BF0E
:105570007021002000B583B00190019B1B684FF49F
:1055800092711846FFF7D8FA019B1B684FF484719B
:105590001846FFF7D1FA019B1B6800211846FFF758
:1055A00061FB00BF03B05DF804FB10B582B0019051
:1055B0000091009BDB7D002B08D14FF48471019892
:1055C000FFF7BAFA0198FFF737FB16E04FF4847142
:1055D0000198FFF7B1FA009BDB68009A527ED2B2C5
:1055E0009C180198FFF728FB03462370009B5B7E05
:1055F000DBB20133DAB2009B5A7602B010BD000074
:1056000000B589B00390029111461A460B468DF8F9
:10561000073013468DF80630039B1B795B014D4A1A
:1056200013440793079B9B7E83F00103DBB2002B9F
:1056300009D09DF8063083F00103DBB2002B02D0C5
:105640000398FFF797FF079B5B68002B73D1039BC1
:105650001B684FF4A2711846FFF76EFA039B1B6894
:105660004FF492711846FFF77CFA03468DF81B3011
:10567000039B1B684FF484711846FFF772FA0346C8
:105680008DF81A30039B1B684FF4A2711846FFF780
:1056900068FA03468DF819309DF81A3083F001033B
:1056A000DBB2002B0DD09DF8193083F00103DBB283
:1056B000002B06D09DF81B3083F00103DBB2002BDA
:1056C000CCD19DF81B30002B10D19DF81930002B48
:1056D0000CD1039B1B6807991846FFF766FF079BD1
:1056E000DA7D079B5B7EDBB29A42B7D8079B00222C
:1056F000DA759DF81B30002B03D003230593059B1F
:1057000023E09DF81930002B03D00F230593059B50
:105710001BE0079B9B7E002B06D0039B1B68002190
:105720001846FFF79FFA0DE0039B1B6804211846FB
:10573000FFF798FA06E0039B1B684FF401711846C7
:10574000FFF721FA00230593059B184609B05DF881
:1057500004FB00BF7021002000B587B003900291C8
:1057600011461A460B468DF8073013468DF8063061
:1057700000230593039B1B684FF488711846FFF7BD
:105780009EFA039B1B684FF4A2711846FFF797FA25
:10579000039B1B689DF8072002991846FFF763FBDF
:1057A0009DF8063083F00103DBB2002B06D0039B8B
:1057B0001B6800211846FFF70FFB05E0039B1B68E1
:1057C00020211846FFF7A2FA039B1B792D4A5B01A3
:1057D000134404331B68002B47D1039B1B684FF411
:1057E00088711846FFF780FA03468DF81330039B43
:1057F0001B684FF4A2711846FFF776FA03468DF83E
:105800001230039B1B684FF492711846FFF76CFA35
:1058100003468DF811309DF8133083F00103DBB29D
:10582000002B0DD09DF8123083F00103DBB2002B6A
:1058300006D09DF8113083F00103DBB2002BCCD1F0
:10584000039B1B790F4A5B011344173300221A7024
:105850009DF81130002B01D0032305939DF81230E1
:10586000002B09D00F23059306E0039B1B684FF420
:1058700004711846FFF767FA059B184607B05DF8F4
:1058800004FB00BF7021002000B589B00390029195
:1058900013468DF80730039B1B795B014F4A134475
:1058A0000693039B1B794D4A5B0113441C331B7801
:1058B000002B0CD00298FFF7FBFA034683F001039C
:1058C000DBB2002B03D010230593059B81E000235E
:1058D0008DF81F30069B5B68002B17D0039B1B794C
:1058E0003E4A5B0113441C331B78002B07D0039BFB
:1058F0001B684FF404711846FFF72FFA06E0039B6C
:105900001B684FF401711846FFF757F9069BDB7DC2
:10591000002B26D0069B1B7E002B1FD0069B5B68AE
:10592000002B17D0039B1B792C4A5B0113441C33BB
:105930001B78002B07D0039B1B684FF4047118469B
:10594000FFF701FA06E0039B1B684FF4017118464C
:10595000FFF719F911230593059B3AE001238DF810
:105960001F309DF81F3083F00103DBB2002B0DD0F8
:10597000069B9DF80720DA75069B029ADA60069B63
:1059800000225A76069B00221A7606E0069B029AAF
:105990001A61069B9DF807201A76039B1B790F4A14
:1059A0005B0113441C331B78002B09D09DF81F307A
:1059B0009DF8072002990398FFF7CEFE034608E002
:1059C0009DF81F309DF8072002990398FFF718FEF5
:1059D0000346184609B05DF804FB00BF70210020A3
:1059E00000B583B00190019B1B79114A5B01134400
:1059F0001C331B78002B16D1019B1B790C4A5B01D1
:105A000013441A331B7883F00103DBB2002B0AD056
:105A10000198FFF7AFFD019B1B79054A5B01134419
:105A20001A3301221A7000BF03B05DF804FB00BFF7
:105A30007021002000B589B003900B4601928DF8CB
:105A40000B3001238DF810309DF80B308DF8183095
:105A5000019B0593039B5B68039A116804AA104697
:105A6000984700BF09B05DF804FB00B587B001900E
:105A70000B468DF8033000238DF808309DF8033075
:105A80008DF81030019B9B680393019B00229A754F
:105A9000019B5B68019A116802AA1046984700BFF3
:105AA00007B05DF804FB00B589B0019000914FF498
:105AB00000710198FFF771F80346002B39D04FF4BD
:105AC00092710198FFF74DF80346002B31D04FF447
:105AD00092710198FFF730F84FF401710198FFF7C8
:105AE0006CF8009B9B7E83F00103DBB2002B03D09C
:105AF00004210198FFF7B6F802238DF808300198C9
:105B0000FFF765F803460593009BDB7D8DF81030A9
:105B1000009BDB680393009B0022DA75009B002248
:105B20001A76009B5B68009A116802AA1046984793
:105B300056E004210198FFF730F80346002B4FD0C0
:105B40004FF484710198FFF70CF80346002B47D0FF
:105B500000990198FFF729FD009BDA7D009B5B7E91
:105B6000DBB29A423CD1009B1B7E002B1CD0009BD9
:105B7000DB680793009B5B7E8DF81B30009B1A7ED1
:105B8000009BDA75009B1A69009BDA60009B00227B
:105B90001A76009B00225A769DF81B30079A194608
:105BA0000098FFF747FF1BE0009B9B7E83F00103FB
:105BB000DBB2002B03D004210198FFF753F84FF418
:105BC00001710198FEF7F9FF009B0022DA75009B36
:105BD0005B7ED9B2009BDB681A460098FFF72AFF6C
:105BE0004FF48E710198FEF7BCFF0346002B1BD0CB
:105BF000009B9B8A9AB2009B9B7D9BB29A4204D2E7
:105C000000990198FFF75EFB0EE04FF48E7101984A
:105C1000FEF792FF009B9B7D002B05D0009B9B7D98
:105C200019460098FFF721FF4FF4A2710198FEF783
:105C300098FF0346002B1CD04FF4A2710198FEF789
:105C40007BFF009B9B7E002B03D000210198FFF778
:105C500009F8009BDB7D002B0BD0009B0022DA753E
:105C6000009B5B7ED9B2009BDB681A460098FFF769
:105C7000E1FE00BF09B05DF804FB00B589B00190FA
:105C800000914FF492710198FFF72EF80346002B14
:105C900024D04FF492710198FFF711F802238DF888
:105CA00008300198FFF763F8034605930198FFF762
:105CB000ECF80346DBB28DF81030009BDB680393F1
:105CC000009B0022DA75009B00221A76009B5B681D
:105CD000009A116802AA1046984741E04FF4887173
:105CE0000198FFF701F80346002B39D04FF4887173
:105CF0000198FEF7E4FF0198FFF7C7F803468DF817
:105D00001F30009BDB7D9DF81F209A4228D1009B0D
:105D10001B7E002B19D0009BDB6806932021019885
:105D2000FFF702F8009B1A7E009BDA75009B1A6948
:105D3000009BDA60009B00221A769DF81F30069ABD
:105D400019460098FFF776FE0AE0009B0022DA75FC
:105D5000009BDA689DF81F3019460098FFF76AFE2D
:105D60004FF4A2710198FEF7BFFF0346002B16D037
:105D70004FF4A2710198FEF7A2FF009BDB7D002B80
:105D80000DD0009B0022DA750198FFF77EF80346DC
:105D9000D9B2009BDB681A460098FFF74BFE4FF420
:105DA00090710198FEF7A0FF0346002B11D04FF42D
:105DB00090710198FEF783FF009B9B7D002B08D01C
:105DC0000198FFF748F80346DBB219460098FFF741
:105DD0004CFE00BF09B05DF804FB000008B5074B9E
:105DE0001B7F002B04D005490548FFF746FF03E061
:105DF00002490348FFF757FE00BF08BD702100208D
:105E00000020004082B003468DF807309DF807302F
:105E100003F01F0206499DF907305B09012000FAD3
:105E200002F2203341F8232000BF02B0704700BFC8
:105E300000E100E082B001904FF08042019BC2F887
:105E4000043300BF02B0704782B001904FF080422F
:105E5000019BC2F8083300BF02B0704782B003460E
:105E60008DF807309DF8073003F1804301221A6056
:105E700000BF02B0704784B00346ADF80630BDF8ED
:105E8000063003F1804300221A60BDF8063003F1AA
:105E900080431B680393039B00BF04B0704782B02C
:105EA0000346ADF80630BDF8063003F180431B68A9
:105EB000002B14BF01230023DBB2184602B0704749
:105EC00082B003468DF807309DF807304FF08042CE
:105ED00003F00303C2F8183500BF02B070474FF05B
:105EE0008043D3F818341B0C03F00103002B14BFBC
:105EF00001230023DBB218467047000082B003463E
:105F00008DF807300A4A9DF907305B0952F82320C3
:105F10009DF8073003F01F03012101FA03F313403A
:105F2000002B14BF01230023DBB2184602B07047D8
:105F300000E100E008B50020FFF7E0FF034683F032
:105F40000103DBB2002B03D007210020FDF710FF77
:105F500000BF08BD08B54FF48270FFF78CFF022028
:105F6000FFF768FF0820FFF779FF00BF08BD0000BA
:105F700008B50C20FFF772FF00BFFFF7B0FF034624
:105F8000002BFAD1024B00229A7000BF08BD00BF5F
:105F90009021002000B583B000230193134B1B78A0
:105FA000002B02D0852301931BE0104B00229A6046
:105FB0000E4B00225A600D4B00221A610B4B00223F
:105FC000DA60FFF7B7FF04F0D7F9034683F0010367
:105FD000DBB2002B02D00120FFF772FF034B01223E
:105FE0001A70019B184603B05DF804FB9021002055
:105FF00084B001900091019B1B68039306E0039A13
:10600000009B9A420DD0039B1B680393039B002BBC
:10601000F5D1019B1A68009B1A60019B009A1A60D7
:1060200000E000BF04B0704784B00190019B1B6882
:106030000393039B002B03D0039B1A68019B1A60F8
:10604000039B184604B0704700B585B00190214B02
:106050009B78DBB2002B19D0019B002B03D0019B56
:106060005B680120984700238DF80F300DF10F0376
:10607000184601F01DF8174BDB680133154AD36051
:106080009DF80F30184601F01DF81EE000238DF832
:106090000E300DF10E03184601F00AF8019B002B9B
:1060A00003D001990C48FFF7A3FF0A4BDB68002BD4
:1060B00001D1FFF74FFF074BDB680133054AD3607F
:1060C0009DF80E30184600F0FDFF00BF05B05DF8EA
:1060D00004FB00BF90210020A021002000B583B068
:1060E00000238DF807300DF10703184600F0E0FF9C
:1060F000094BDB68013B084AD360074BDB68002B88
:1061000001D1FFF735FF9DF80730184600F0DAFFA0
:1061100000BF03B05DF804FB9021002000B585B0FE
:1061200003468DF807309DF80730002B02D10C4B49
:10613000039301E00B4B03930398FFF775FF029065
:10614000029B002B06D0029B5B689DF8072010463F
:106150009847F1E700BF00BF05B05DF804FB00BF42
:1061600098210020A021002008B54FF48070FFF78F
:1061700096FE0346002B0CD04FF48070FFF77BFE99
:106180000120FFF761FE0E4B01225A700020FFF73D
:10619000C5FF4FF48270FFF782FE0346002B0CD040
:1061A0004FF48270FFF767FE0220FFF74DFE044BAD
:1061B00001229A700120FFF7B1FF00BF08BD00BFA8
:1061C0009021002000B583B001900091019B002B2D
:1061D00002D10020FFF7A2FF00BF03B05DF804FB6F
:1061E00000B585B0034600918DF807309DF8073063
:1061F000032B29D0032B2EDC002B02D0012B04D043
:1062000029E00020FFF7FEFD26E000238DF80F3087
:106210000DF10F03184600F04BFF114B1B7883F074
:106220000103DBB2002B01D0FFF7B4FE0C4BDB689F
:1062300001330B4AD3600A4B01229A709DF80F304C
:10624000184600F03FFF07E007210020FDF790FD12
:10625000FFF744FF00E000BF00BF05B05DF804FB9E
:106260009021002082B001900B468DF803309DF8FC
:106270000330019A134401221A6000BF02B0704734
:1062800084B001900B46ADF80230BDF80230019A9F
:10629000134400221A60BDF80230019A13441B68AF
:1062A0000393039B00BF04B0704782B001900B467C
:1062B000ADF80230BDF80230019A13441B68002B80
:1062C00014BF01230023DBB2184602B0704782B02E
:1062D00001900091019B009AC3F8042300BF02B013
:1062E000704782B001900091019B009AC3F8082387
:1062F00000BF02B0704782B00190019B0522C3F835
:10630000002500BF02B0704782B00190019B0022BF
:10631000C3F8002500BF02B0704784B0039002911B
:106320000192039B029AC3F80825039B019AC3F8C4
:106330000C2500BF04B0704782B001900091019B12
:10634000009AC3F8242500BF02B0704784B00190C2
:10635000019BD3F8C4340393019B039AC3F8C4246C
:10636000039B184604B0704782B001900B468DF82D
:1063700003309DF80320019BC3F8882500BF02B0BD
:10638000704782B00190019BD3F81835DBB21846F4
:1063900002B0704782B001900B468DF803309DF833
:1063A0000320019BC3F81C2500BF02B0704782B0D8
:1063B00001900091019B009AC3F8002200BF02B037
:1063C000704784B00190019B1B0B8DF80F309DF935
:1063D0000F30184604B0704782B001904FF0A043D0
:1063E000184602B0704700B585B0019001AB184661
:1063F000FFF7F2FF0390019B012202FA03F3194613
:10640000039800F035F800BF05B05DF804FB00B557
:1064100085B0019001AB1846FFF7DEFF0390019BAA
:10642000012202FA03F31946039800F02BF800BF8B
:1064300005B05DF804FB00B585B0019001AB1846CE
:10644000FFF7CAFF0390039800F00AF80246019B89
:1064500022FA03F303F00103184605B05DF804FBCC
:1064600082B00190019BD3F81035184602B07047F6
:1064700082B001900091019B009AC3F8082500BFEB
:1064800002B0704782B001900091019B009AC3F85E
:106490000C2500BF02B0704784B00190244B0393D9
:1064A000019B002B40D0234B1A680399019B00BF2E
:1064B00000BF00BF00BF00BF00BF00BF00BF8A42D7
:1064C0002FD000BF00BF00BF00BF00BF00BF00BF94
:1064D00000BF00BF00BF00BF00BF00BF00BF00BFC4
:1064E00000BF00BF00BF00BF00BF00BF00BF00BFB4
:1064F00000BF00BF00BF00BF00BF00BF00BF00BFA4
:1065000000BF00BF00BF00BF00BF00BF00BF00BF93
:1065100000BF00BF00BF00BF00BF00BF00BF00BF83
:1065200000BF013BC3D1019300BF04B0704700BF5F
:106530000024F4001420002084B00190032303936E
:10654000019B03F00103002B02D04FF4024303939D
:10655000019B03F00203002B02D048F201230393B6
:10656000019B03F00403002B02D048F202230393A3
:10657000039B184604B0704700B585B001904FF0FA
:10658000A042019B1B6803F5E07340F20C6142F8E6
:1065900023104FF0A042019B5B6803F5E07340F2CB
:1065A0000C6142F82310019B1B681846FFF71BFF84
:1065B000019B5B681846FFF716FF4FF0A042019B56
:1065C0001B6803F5E07340F20D6142F823104FF0B1
:1065D000A042019B5B6803F5E07340F20D6142F855
:1065E00023100420FFF758FF002303931EE0019BB4
:1065F0005B681846FFF71FFF0346002B03D0039B81
:10660000002B17D124E0019B1B681846FFF7FFFE03
:106610000420FFF741FF019B1B681846FFF7E3FECC
:106620000420FFF739FF039B01330393039B082BDF
:10663000DDDD00E000BF019B5B681846FFF7E7FE69
:106640000420FFF729FF019B5B681846FFF7CBFE8C
:1066500005B05DF804FB000000B589B0039002911D
:1066600001920093039B1B791A4613469B00134427
:10667000DB00354A13440793079B93F82230002B25
:1066800003D008230593059B59E0079B019A1A60E4
:10669000079B009A5A60079B00229A60079B002282
:1066A00083F82520079B002283F82420029B9A7BF5
:1066B000079B83F82720029B5B7B002B02D002986C
:1066C000FFF75AFF4FF0A042029B1B6803F5E073EF
:1066D00040F20C6142F823104FF0A042029B5B682D
:1066E00003F5E07340F20C6142F82310039B1B6832
:1066F0000693029B1968029B5B681A460698FFF78F
:106700000CFE029B9B6819460698FFF715FE079B37
:106710001B68002B0CD0039B1B681846FFF751FE2B
:1067200003461A46029B1B7B19461046FDF720FBC9
:10673000079B012283F8222000230593059B18461E
:1067400009B05DF804FB00BFA421002000B585B0AE
:106750000190019B1B791A4613469B001344DB00F2
:10676000084A13440393019B1B6802930298FFF7A6
:10677000C2FD039B022283F8222000BF05B05DF812
:1067800004FB00BFA421002000B585B00390029156
:10679000009313468DF80730009B1B789DF8072067
:1067A0009A4210D9009B1B781A46029B13441B780F
:1067B00019460398FFF7EEFD009B1B780133DAB210
:1067C000009B1A700DE09DF81830002B05D01C219D
:1067D0000398FFF747FD002304E014210398FFF717
:1067E00041FD0123184605B05DF804FB10B584B0E7
:1067F00003900291009313468DF80730009B1B789D
:106800009DF807209A4228D9009B1B781A46029BC4
:106810009C180398FFF7B5FD03462370009B1B7877
:106820000133DAB2009B1A70009B1B781A469DF860
:106830000730013B9A4204D102210398FFF7B7FDCC
:1068400005E0009B1B789DF807209A4204D0202188
:106850000398FFF707FD00E000BF04B010BD00B5CE
:1068600089B00590049103920293049B1B78002B3E
:1068700005D1039B1B789DF828209A4201D1012362
:1068800000E000238DF81F309DF81F3003F0010356
:106890008DF81F30049B1B78002B0FD04FF49271A2
:1068A0000598FFF7EDFC4FF48E710598FFF7E8FCB3
:1068B0004FF484710598FFF7E3FC71E04FF4927197
:1068C0000598FFF7F2FC0346002B0CD04FF49271B1
:1068D0000598FFF7D5FC14210598FFF7C3FC049B2E
:1068E00001221A705CE04FF48E710598FFF7DDFC11
:1068F0000346002B2BD04FF48E710598FFF7C0FC98
:106900004FF492710598FFF7D0FC0346002B0CD092
:106910004FF492710598FFF7B3FC14210598FFF727
:10692000A1FC049B01221A703AE09DF828209DF8F2
:106930002C300093039B02990598FFF725FF03462F
:1069400083F00103DBB2002B2AD000233CE04FF49C
:1069500084710598FFF7A9FC0346002B20D04FF463
:1069600084710598FFF78CFC4FF492710598FFF73E
:106970009CFC0346002B0CD04FF492710598FFF756
:106980007FFC14210598FFF76DFC049B01221A700F
:1069900006E09DF82820039B02990598FFF726FF43
:1069A0009DF81F30002B0ED04FF482710598FFF731
:1069B0007CFC0346002B06D04FF482710598FFF74C
:1069C0005FFC002300E00123184609B05DF804FBDA
:1069D00000B58BB00590049103928DF80B30002325
:1069E000099342F2107307934FF482710498FFF7F2
:1069F00047FC4FF492710498FFF742FC4FF48E71FC
:106A00000498FFF73DFC4FF484710498FFF738FCBD
:106A100000210498FFF7CBFC059B002283F8262079
:106A2000059B002283F8232020210498FFF71AFCFD
:106A300008210498FFF716FC059B03F126019DF839
:106A40000B209DF8303000930B4603990498FFF714
:106A50009BFE059B1B68002B0DD0059B40F28622F8
:106A60009A60059B9B6819460498FFF730FC33E059
:106A7000079B013B0793079B002B12DD059B03F14E
:106A80002301059B03F126029DF8303001939DF808
:106A90000B300093039B0498FFF7E1FE0346002BA5
:106AA000E6D1059B93F82330002B0AD00498FFF71A
:106AB0004DFC0890089B002B03D00898FFF73CFD85
:106AC0000990079B002B07DC0498FFF71DFC049836
:106AD000FFF711FC03230993099B18460BB05DF8DF
:106AE00004FB00B58BB00590049103928DF80B3038
:106AF0000023099342F2107307934FF482710498B4
:106B0000FFF7BEFB4FF492710498FFF7B9FB4FF407
:106B10008E710498FFF7B4FB4FF484710498FFF76B
:106B2000AFFB059B002283F82620059B002283F8FB
:106B300023209DF80B30012B04D102210498FFF78C
:106B400036FC03E001210498FFF731FC2021049872
:106B5000FFF788FB00210498FFF784FB059B1B6867
:106B6000002B0DD0059B40F286229A60059B9B6806
:106B700019460498FFF7ABFB32E0079B013B0793F4
:106B8000079B002B11DD059B03F12301059B03F1FE
:106B90002602002301939DF80B300093039B049879
:106BA000FFF75DFE0346002BE7D1059B93F82330EA
:106BB000002B0AD00498FFF7C9FB0890089B002B14
:106BC00003D00898FFF7B8FC0990079B002B07DC5F
:106BD0000498FFF799FB0498FFF78DFB03230993B3
:106BE000099B18460BB05DF804FB00B589B0059011
:106BF000049103920293002307934FF0FF3104980E
:106C0000FFF76FFB059B93F82430DBB2002B09D014
:106C1000059B9B6819460498FFF759FB11230793BE
:106C2000079B66E0029B03F00403002B0CBF0123CB
:106C30000023DAB2059B83F82420029B03F00803AB
:106C4000002B03D006230793079B52E0059B029A73
:106C50009A61059B039A0C3307CA83E80700039BDC
:106C60009A78059B83F82020039B5A68059BDA617C
:106C7000039B5B7819460498FFF776FB039B1B7810
:106C8000012B20D0039B1B78002B04D1029B03F027
:106C90002003002B01D0012300E0002303F00103B7
:106CA000DAB2059B83F82120039B5A68039B9978ED
:106CB000059B93F8213000930B4604990598FFF744
:106CC00087FE07900CE0059B002283F82120039BA0
:106CD0005A68039B9B7804990598FFF702FF079079
:106CE000059B1B68002B03D1059B002283F8242001
:106CF000079B184609B05DF804FB000000B587B09B
:106D000003900291019200230593039B1B791A467D
:106D100013469B001344DB000C4A13440493019B6D
:106D200003F00303002B03D006230593059B08E023
:106D3000039B1968019B029A0498FFF756FF059080
:106D4000059B184607B05DF804FB00BFA421002096
:106D500000B589B0039001921A460B468DF80B30AE
:106D600013468DF80A3005AB00221A605A609A600B
:106D70009DF80B308DF815309DF80A308DF81630DF
:106D8000019B06939DF82830002B01D0202200E0C3
:106D9000002205AB19460398FFF7B0FF03461846DB
:106DA00009B05DF804FB00B589B0039001921A4662
:106DB0000B468DF80B3013468DF80A3005AB0022D8
:106DC0001A605A609A6001238DF814309DF80B30D8
:106DD0008DF815309DF80A308DF81630019B06931A
:106DE00005AB002219460398FFF788FF03461846B3
:106DF00009B05DF804FB10B58AB003900291029BC4
:106E000003F12301029B03F12600029BDC69029B34
:106E100093F82030029A92F82120019200932346A1
:106E200002460398FFF71BFD0346002B7DD1029B12
:106E300093F8233083F00103DBB2002B3FD0029B99
:106E40001B7B022B03D0029B1B7B032B37D1029BA6
:106E5000DA69029B1B699A4231D1029B5A69029BF3
:106E6000DA61029BDA7B029B83F82020029B9B69FC
:106E700003F02003002B14BF01230023DAB2029B8E
:106E800083F82120029B1B7B032B0ED1029BDA6926
:106E9000029B93F82010029B93F8213000930B463D
:106EA00003990298FFF794FD40E0029BDA69029B88
:106EB00093F8203003990298FFF713FE36E0029A08
:106EC00006AB0C3207CA83E80700029B93F8233015
:106ED000002B15D00398FFF739FA0990099B03F0AE
:106EE0000203002B03D001238DF814300BE0099B23
:106EF00003F00403002B06D002238DF8143002E0C7
:106F000000238DF81430029B002283F82420029B7A
:106F10009B6903F00403002B08D1029B1B68029AB3
:106F2000516805AA1046984700E000BF0AB010BD9E
:106F300008B503490348FFF75EFF00BF08BD00BF67
:106F4000A42100200030004000B587B0019000234C
:106F5000ADF80C3000230493019B059303AB1A4654
:106F6000002144F2010000F01BF800BF07B05DF8FB
:106F700004FB0000BFF34F8F00BF074BDB6803F437
:106F8000E0620549054B1343CB60BFF34F8F00BF51
:106F900000BF00BFFCE700BF00ED00E00400FA0501
:106FA00000B585B0039002910192064B1B6803F077
:106FB0000103002B00D0FFDEFFF7DCFF00BF05B0B0
:106FC0005DF804FBF0ED00E082B0EFF31083009376
:106FD000009B019372B600BF019B184602B0704738
:106FE00062B600BF00BF704700B585B00190FFF7E3
:106FF000EBFF0390164B9B68002B1BD1144B012217
:107000009A60144BD3F88020134B1340104A13603E
:10701000104B114AC3F880200E4BD3F884300C4A31
:1070200053600C4B4FF0FF32C3F88420019B0022C9
:107030001A7002E0019B01221A70039B002B01D100
:10704000FFF7CEFF0023184605B05DF804FB00BF34
:10705000CC21002000E100E0FC06FFBD00B585B0BA
:1070600003468DF80730104B9B68002B16D09DF817
:107070000730002B12D1FFF7A7FF03900B4A0A4BF2
:107080001B681360094A084B5B685360064B00227B
:107090009A60039B002B01D1FFF7A2FF0023184643
:1070A00005B05DF804FB00BFCC21002000E100E04A
:1070B00000B583B001900198FFF796FF00BF03B0C1
:1070C0005DF804FB00B583B003468DF807309DF8EA
:1070D00007301846FFF7C2FF00BF03B05DF804FB9E
:1070E00084B00190019B9B680393019BDA68039B2A
:1070F000D31A184604B0704782B001900B468DF841
:107100000330019B1A68019BDB68019989880B4059
:1071100013449DF803201A70019BDB685A1C019BE5
:10712000DA6000BF02B0704784B003900B46019252
:10713000ADF80A30039B1A68039B9968BDF80A30C2
:107140000B44039989880B4013441A78019B1A70E9
:1071500000BF04B0704700B583B001900091009A61
:1071600000210198FFF7E0FF019B9B685A1C019BDF
:107170009A6000BF03B05DF804FB84B003900291F5
:107180001346ADF80630029B002B01D10E231DE003
:10719000BDF80630002B07D0BDF806305A1EBDF8EA
:1071A00006301340002B01D009230FE0039B029A05
:1071B0001A60BDF80630013B9AB2039B9A80039B8C
:1071C00000229A60039B0022DA600023184604B074
:1071D000704700B583B001900B468DF803300198DD
:1071E000FFF77EFF0246019B9B889A4207D89DF8D5
:1071F000033019460198FFF77FFF002300E00423C6
:10720000184603B05DF804FB00B583B0019000910F
:107210000198FFF765FF0346002B05D00099019800
:10722000FFF799FF002300E00523184603B05DF83F
:1072300004FB00B583B001900091019BDBB21846BE
:1072400000F05AF9019B184603B05DF804FB82B0C8
:1072500001900091019B009A1A60019B1B681A68BB
:10726000019B5A60019B5A68019B1B685B689A42AC
:1072700002D1019B00225A6000BF02B0704782B069
:107280000190019B5B68002B14D0019B5B681A4640
:10729000019B1B689B6813441A46019B5A60019B23
:1072A0005A68019B1B685B689A4204D1019B0022CB
:1072B0005A6000E000BF02B0704784B00190019BAB
:1072C0009B680393019BDA68039BD31A184604B0AA
:1072D0007047000000B587B001900091019B1B78BA
:1072E000022B3BD0022B60DC002B48D0012B5CD161
:1072F000019B5B681B7819462E48FFF76AFF0590D3
:10730000059B002B0AD001238DF80C30059B0493BC
:10731000294B1B6803AA104698470DE02548FFF744
:10732000CCFF0346002B07D000238DF80C30224BF6
:107330001B6803AA104698471E48FFF7BEFF034686
:107340001C4A9288934205D801221C491C48FEF72A
:107350009BFA2BE01B4B01221A7027E002238DF8C9
:107360000C30019BDB680493012214491448FEF79A
:107370008BFA114B1B6803AA1046984716E0124976
:107380001248FFF741FF0346002B05D101220E49A9
:107390000B48FEF78BF809E003238DF80C30064B01
:1073A0001B6803AA1046984700E000BF00BF07B063
:1073B0005DF804FBE4210020D8210020E02100201A
:1073C00024200020E1210020DC210020F4210020E5
:1073D00030B58FB00390029101928DF803303E4A90
:1073E000019B1360029B002B01D1072371E0029BDC
:1073F0001968029B5B689BB21A463848FFF7BDFECE
:107400000D900D9B002B01D00D9B62E0029B9968B3
:10741000029BDB689BB21A463148FFF7AEFE0D9027
:107420000D9B002B01D00D9B53E02E4B05AC1D4650
:107430000FCD0FC495E80F0084E80F00039B5B6934
:107440000B93039B1B7C002B14BF01230023DBB297
:107450008DF828309DF803308DF83030039B5B7C2D
:10746000002B01D00E2300E000238DF82930039B70
:10747000DB680793039B9B680893039B1B68069339
:10748000039B5B68059305AB174A19461748FDF740
:10749000D1FE0D900D9B002B01D00D9B19E0144BDC
:1074A00000221A70039B1B68B3F1FF3F10D09DF8B8
:1074B000313083F00103DBB2002B02D00B48FEF722
:1074C0008FFA01220B490948FEF7DEF9034600E076
:1074D000002318460FB030BDD8210020E421002041
:1074E000F4210020541A0300D57202002420002049
:1074F000E1210020E021002000B585B003468DF891
:1075000007309DF8073019461048FFF762FE0390D8
:10751000039B002B15D10E48FEF718F8034683F0A5
:107520000103DBB2002B0CD00A490848FFF76CFEC0
:107530000346002B05D1012206490548FDF7B6FF99
:107540000390039B184605B05DF804FBF42100206E
:1075500024200020DC21002082B00190019B03F058
:107560000303002B0CBF01230023DBB2184602B03B
:10757000704710B487B001900091019B009A53E8C6
:10758000004F44EA020043E8000191F0000FF6D1F9
:10759000059404900391059B184607B05DF8044BD1
:1075A000704710B487B001900091019B009A53E896
:1075B000004F04EB020043E8000191F0000FF6D108
:1075C000059404900391059B184607B05DF8044BA1
:1075D000704710B487B001900091019B009A53E866
:1075E000004F04EB020043E8000191F0000FF6D1D8
:1075F000059404900391049B184607B05DF8044B72
:10760000704710B487B001900091019B009A53E835
:10761000004FA4EB020043E8000191F0000FF6D107
:10762000059404900391049B184607B05DF8044B41
:10763000704700B583B0019001210198FFF799FFD1
:107640000346184603B05DF804FB000000B585B0A2
:107650000190002303930EE00B4A039B52F8233062
:10766000002B05D0084A039B52F823300198984715
:10767000039B01330393039B032BEDD900BF00BF92
:1076800005B05DF804FB00BF1422002082B0019019
:107690000091019B1B78013B052B61D801A252F898
:1076A00023F000BFBD760200C5760200EB76020033
:1076B0001D7702003D77020059770200009B0022EF
:1076C0001A704EE0009B01221A70019B1A89009BE0
:1076D0009A81019B9A88009BDA81019BDA68009B62
:1076E0009A60009B00221A743BE0009B02221A70F1
:1076F000019B1A89009B9A81019B9A88009BDA81E1
:10770000019BDA68009B9A60019B9B7D062B0CBF56
:1077100001230023DAB2009B1A7422E0009B0322AB
:107720001A70019BDA88009B9A81019B1A89009B41
:10773000DA81019BDA68009B9A6012E0009B0422C8
:107740001A70019BDA88009B9A81009B0022DA81E3
:10775000009B00229A6004E0009B05221A7000E062
:1077600000BF00BF02B0704784B001900091019B40
:107770000393039A009B9A4206D2039B1B68B3F1C2
:10778000FF3F01D0012300E0002303F00103DBB23F
:10779000184604B0704782B00190019B5B880333A8
:1077A0009B00019A1344184602B0704700B583B09D
:1077B000019000910198FFF7EEFF0246009B934273
:1077C00001D202230CE0019B9B884FF6FF7293428B
:1077D00003D0019B1B88002B01D1012300E0002373
:1077E000184603B05DF804FB00B583B00190019B1F
:1077F000002B13D00D4BDB681A46019B93420DD32F
:107800000A4B1B691A46019B934207D80198FFF760
:10781000A3FE0346002B01D0012300E0002303F068
:107820000103DBB2184603B05DF804FB0020002022
:1078300082B00190019B002B04D0019B1B680B4A76
:10784000934201D003230DE0019B04331B68084AD7
:10785000934204D0074A934203D1012302E000235C
:1078600000E00323184602B0704700BFDEC0ADDE63
:10787000FE011EF1FF011EF184B00190002303936D
:107880000CE0039B9B00019A13441B68B3F1FF3F7C
:1078900001D0002307E0039B01330393039BB3F55F
:1078A000806FEED30123184604B0704782B00346C0
:1078B0000A46ADF806301346ADF80430BDF8062090
:1078C000134913469B0013449B000B4408331A884A
:1078D000BDF804301344ADF80430BDF806200C495F
:1078E00013469B0013449B000B440A331A88BDF8CF
:1078F00004301344ADF80430BDF8043040F2FF32D8
:10790000934294BF01230023DBB2184602B07047B4
:10791000C422002084B0019000910A230393002325
:10792000ADF80A3027E0BDF80A20174913469B003E
:1079300013449B000B4404331B68009A9A4215D9E8
:10794000BDF80A20104913469B0013449B000B44CA
:1079500004331B6803F58053009A9A4206D2002331
:107960000393019BBDF80A201A8008E0BDF80A3095
:107970000133ADF80A30BDF80A30012BD3D9039B8F
:10798000184604B0704700BFC422002000B589B07B
:10799000039002910192039B03F580530693039B8E
:1079A00008330393029B02221A80039B079332E061
:1079B00006990798FFF7FAFE03468DF817309DF8F1
:1079C0001730002B0AD1079B9A68184B1B689A4204
:1079D00013D9079B9B68154A13600EE0019B002B8F
:1079E00002D0019B01221A709DF81730022B04D19E
:1079F000029B4FF480621A8014E0029B1A88079B56
:107A00005B8813449BB203339AB2029B1A80079897
:107A1000FFF7C1FE079006990798FFF7A5FE0346FA
:107A2000002BC5D109B05DF804FB00BF2422002063
:107A300082B001900B46ADF80230019B1A89BDF867
:107A4000023013449BB203339AB2019B1A81019B0B
:107A50005A89BDF80230D31A9BB2033B9AB2019BFC
:107A60005A8100BF02B0704700B583B0074B1B6856
:107A70001946002300930823054A064801F071FCCB
:107A80000346184603B05DF804FB00BFEC2200205B
:107A9000741A03000020002000B585B003900399FC
:107AA000002300930823044A044801F05AFC0346CB
:107AB000184605B05DF804FB7C1A03000020002086
:107AC00000B585B003460091ADF8063000238DF86F
:107AD0000F30BDF806300333ADF80A30BDF80A3078
:107AE00040F2FD32934201D909234AE00023ADF868
:107AF0000C303BE0BDF80C20244913469B00134496
:107B00009B000B441B78002B2BD1BDF80A20BDF83D
:107B10000C3011461846FFF7C9FE0346002B20D053
:107B200001238DF80F30009BBDF80C201A80BDF8A2
:107B30000C20164913469B0013449B000B440A3348
:107B40001988BDF80C20BDF80A300B4498B20F49D3
:107B500013469B0013449B000B440A3302461A80D1
:107B600008E0BDF80C300133ADF80C30BDF80C3036
:107B7000012BBFD99DF80F30002B01D0002300E06E
:107B80000723184605B05DF804FB00BFC42200209F
:107B900082B003460A46ADF806301346ADF804300D
:107BA000BDF804200D4913469B0013449B000B4471
:107BB0000A331A88BDF80630D31A9BB2BDF80420E8
:107BC000033B98B2054913469B0013449B000B44AA
:107BD0000A3302461A8000BF02B07047C422002058
:107BE00008B501210248FFF7F4FC0346184608BD1A
:107BF0002422002000B585B003460091ADF8063080
:107C0000BDF80620244913469B0013449B000B44F7
:107C100004331B6803F580530293009B1B68039396
:107C2000039B002B04D00398FFF7B5FD039026E0DB
:107C3000BDF80620184913469B0013449B000B44D3
:107C400004331B680833039319E002990398FFF784
:107C5000ADFD0346022B10D0022B10DC002B02D00E
:107C6000012B05D00BE0009B039A1A6001230EE064
:107C70000398FFF790FD039001E0002307E00299CD
:107C80000398FFF771FD0346002BDED10023184651
:107C900005B05DF804FB00BFC422002000B585B02C
:107CA00001900091019B5B681846FFF79DFD03461C
:107CB000002B19D0019B1A89244B1B899A4213D19E
:107CC000019B1A68019B5B689B689A420CD1019BDF
:107CD0005B6819460098FFF71DFE0346002B0CBF9A
:107CE00001230023DBB22CE0009B00221A8023E05A
:107CF0000023029310E0029B0393039B9A68019B6D
:107D00001B689A4208D1029A019B5A600F4B1A894C
:107D1000019B1A81012314E0009B1B8802AA1146D3
:107D20001846FFF767FF0346002BE4D1009B1B8832
:107D300001339AB2009B1A80009B1B88012BD7D974
:107D40000023184605B05DF804FB00BFF4220020B4
:107D500000B587B00390029101920093304B1B78DD
:107D6000DBB283F00103DBB2002B01D0022353E02E
:107D7000019B002B02D0009B002B48D105234BE038
:107D8000009B9B881946274A0B469B000B449B008F
:107D900013441B78002B33D124E0009B1B68059310
:107DA000039B002B06D0059B9A88039B1B889A4255
:107DB00000D017E0029B002B06D0059B1A88029B7F
:107DC0001B889A4200D00DE0059B9A68019B1A60BF
:107DD000009B1A68019B5A60134B1A89019B1A81F8
:107DE000002319E0009B9B88009A11461846FFF774
:107DF00001FF0346002BD0D1009B00221A6000E057
:107E000000BF009B9B8801339AB2009B9A80009B25
:107E10009B88012BB4D90A23184607B05DF804FBF0
:107E200004220020C4220020F422002000B587B0E4
:107E30000291019200930346ADF80E30BDF80E207A
:107E4000324913469B0013449B000B4404331B68C8
:107E500008330593BDF80E202C4913469B001344AC
:107E60009B000B4404331B6803F58053049342E0EA
:107E700004990598FFF79AFC0346022B25D0022BA4
:107E800038DC002B16D0012B34D1019B1B88013329
:107E90009AB2019B1A80009B1A88059B5B88134449
:107EA0009BB203339AB2009B1A800598FFF773FCCC
:107EB000059020E0029B1B8801339AB2029B1A8036
:107EC0000598FFF768FC059015E0019B1B880133BE
:107ED0009AB2019B1A80009B1A880499059BCB1AC1
:107EE0009B109BB213449AB2009B1A80089B0122FC
:107EF0001A7007E000BF04990598FFF735FC0346A8
:107F0000002BB5D107B05DF804FB00BFC4220020F0
:107F100000B585B00190084B0199184601F0B7FBF8
:107F200003901C220021039808F0A5FD039B18462E
:107F300005B05DF804FB00BFB422002000B583B09B
:107F40000190044B0199184601F0B8FB00BF03B043
:107F50005DF804FBB422002000B583B00190054B0E
:107F60000199184601F0BEFB0346184603B05DF8C0
:107F700004FB00BFB422002000B583B00190044B85
:107F80000199184601F0C5FB00BF03B05DF804FB82
:107F9000B422002008B501210548FFF732FB034653
:107FA000002B14BF01230023DBB2184608BD00BF1D
:107FB0000C22002000B587B0002305930023ADF804
:107FC00012300323ADF8103000238DF80F3000235A
:107FD000ADF80C30F3E0BDF80C301A03804BDB68D1
:107FE000134402930298FFF723FC03468DF80730F1
:107FF0009DF80730032B08D0032B00F3DA80002B09
:1080000065D0012B00F09880D3E00298FFF734FC94
:108010000346002B3BD0734B1B68002B29D0BDF8C7
:108020001220714913469B0013449B000B4402220B
:108030001A70BDF812206C4913469B0013449B0034
:108040000B440433029A1A60BDF8122066491346A5
:108050009B0013449B000B44083302221A80634A9E
:10806000BDF812305380BDF812300133ADF8123034
:1080700008E05C4A029B13605A4B02229A8001235B
:108080008DF80F30059B43F00103059392E0BDF896
:108090001030013BADF81030BDF8122052491346A4
:1080A0009B0013449B000B440433029A1A60BDF8F2
:1080B00012204D4913469B0013449B000B4403229E
:1080C0001A70BDF812300133ADF8123072E0BDF80D
:1080D0001220454913469B0013449B000B44002289
:1080E0001A70BDF81220404913469B0013449B00B0
:1080F0000B440433029A1A60BDF8122013469B0009
:1081000013449B000833384A9918BDF812201346CF
:108110009B0013449B001033334A13441A460298C1
:10812000FFF734FC059B43F002030593BDF81230C2
:108130000133ADF812303DE09DF80F30002B25D013
:10814000BDF81220284913469B0013449B000B44A2
:1081500002221A70BDF81220224B196822481346D9
:108160009B0013449B00034404331960BDF81220A4
:108170001D4913469B0013449B000B440833022205
:108180001A80BDF812300133ADF81230154A029B47
:108190001360002216490298FFF7F8FB114B9B88E9
:1081A000022B01D1042300E00823059A1343059311
:1081B00000E000BFBDF80C300133ADF80C30BDF865
:1081C0000C30022B7FF607AFBDF81030012B01D821
:1081D00000230593059BDBB2184607B05DF804FB4E
:1081E00000200020EC220020C4220020F4220020E5
:1081F000F022002000B587B003900291039B022279
:108200009A750299039B1A1D0023009304230748C3
:1082100001F0A7F80590059B002B01D1002300E099
:108220000E23184607B05DF804FB00BF00200020B5
:1082300000B587B003900291039B1B69002B01D00E
:10824000032200E00122039B9A75029B0833194622
:10825000039B03F10C02002300930423064801F062
:1082600080F80590059B002B01D1002300E00E2330
:10827000184607B05DF804FB0020002000B587B069
:1082800003900291039B1B78032B01D1052200E090
:108290000622039B9A75029B04331946039B03F144
:1082A0000802002300930423064801F05AF80590C1
:1082B000059B002B01D1002300E00E23184607B0D8
:1082C0005DF804FB0020002000B587B003900B464A
:1082D000ADF80A3003990023009304230C4A0D489B
:1082E00001F03FF80590059B002B01D00E230BE019
:1082F000BDF80A20084913469B0013449B000B4419
:10830000103301221A700023184607B05DF804FBF1
:10831000841A030000200020C422002000B589B088
:10832000019002AB00221A605A609A60019BDB68E0
:1083300002930DF1160202AB11461846FFF7AEFC90
:108340000346002B12D0039B0693069B9A88019B41
:10835000DA80069B1A88019B1A81039BBDF81620C0
:1083600011461846FFF7B0FF079001E00A23079374
:10837000079B184609B05DF804FB000000B587B004
:108380000190019B981D02AA0D4B0021FFF7E0FC14
:108390000590059B002B08D1039B094A9288114642
:1083A0001846FFF791FF059004E0082200210448D9
:1083B00008F061FB059B184607B05DF804FB00BFA1
:1083C0000423002000B587B003900291039B012293
:1083D0009A75029B0C331846039B1A69039BDB8832
:1083E0009B00002100910146064800F0BAFF05906D
:1083F000059B002B01D1002300E00E23184607B097
:108400005DF804FB0020002082B0184B1B8901336B
:108410009AB2164B1A81154B00225A80134B002238
:108420001A730023ADF8063018E0BDF80620104995
:1084300013469B0013449B000B441A78BDF806308A
:10844000002A0CBF01220022D1B2084A13440A4676
:108450009A72BDF806300133ADF80630BDF806302B
:10846000012BE2D900BF00BF02B07047F422002008
:10847000C422002084B0019000238DF80F30002327
:10848000ADF80C3031E0BDF80C301C4A13449B7A37
:10849000002B25D0BDF80C30184A134400229A72E4
:1084A000BDF80C20164913469B0013449B000B4457
:1084B0000C331B68002B13D1BDF80C201049134658
:1084C0009B0013449B000B4410331B78002B07D0F8
:1084D000019BBDF80C201A8001238DF80F3008E0B5
:1084E000BDF80C300133ADF80C30BDF80C30012B69
:1084F000C9D99DF80F30184604B07047F422002007
:10850000C422002008B5084B05221A70074B02222E
:108510009A80064B1B68194600230122044800F08C
:1085200072FF0346184608BDF4220020EC2200200A
:108530000020002000B583B0164B5B88ADF80230F8
:10854000BDF80220144913469B0013449B000B44C2
:108550000C331B68002B14D10E4B04221A70BDF88B
:1085600002200D4913469B0013449B000B44043327
:108570001B68194600230122084800F044FF0190BF
:1085800002E0FFF7BFFF0190019B184603B05DF8C2
:1085900004FB00BFF4220020C422002000200020A1
:1085A00000B587B0104B5B680593104B1A680F4BF2
:1085B0009B889B0013440493059B5B880333ADF8B1
:1085C0000E30094B03221A700499074B5A68BDF804
:1085D0000E309B0000200090054800F0C2FE0346CC
:1085E000184607B05DF804FBF4220020EC220020BE
:1085F0000020002000B583B00A4B5B880A4918466A
:10860000FFF7F8FA0346002B03D0FFF7C9FF0190EC
:1086100002E0FFF78FFF0190019B184603B05DF861
:1086200004FB00BFF4220020F822002008B50A4B0A
:1086300006221A70084B5B881946084A0B469B00B5
:108640000B449B00134404331B681846FFF724FABD
:108650000346184608BD00BFF4220020C4220020B3
:1086600008B5054B07221A70034B00225A60FFF72A
:10867000FBF90346184608BDF422002008B50D4852
:10868000FFF7F8FE034683F00103DBB2002B0BD0AB
:10869000094B00221A70084B00225A80064B002218
:1086A0005A6041F61D5302E0FFF7A4FF0346184647
:1086B00008BD00BFF6220020F422002082B0094B42
:1086C0005B680193019B5B880333ADF80230064B76
:1086D0009A88BDF8023013449AB2034B9A8000BFC7
:1086E00002B07047F4220020EC22002082B0184B28
:1086F0001B680193174B5B881946174A0B469B0072
:108700000B449B00134404331B68114A1360114B44
:108710005B881946104A0B469B000B449B00134490
:108720000433019A1A600B4B5B881946084B9888F2
:10873000094A0B469B000B449B0013440833024636
:108740001A80034B02229A8000BF02B0704700BF1C
:10875000EC220020F4220020C422002008B51A4B8D
:108760001B78072B2CD801A252F823F08D8702002A
:10877000C1870200C187020099870200A587020015
:10878000B1870200B1870200B9870200FFF73CFE03
:108790000D4B01221A7014E0FFF790FF0A4B0222E2
:1087A0001A700EE0FFF7A2FF074B06221A7008E0CE
:1087B000054B07221A7004E0034B01221A7000E0F7
:1087C00000BF00BF08BD00BFF422002000B587B085
:1087D000019000910F230593019B002B04D0624B65
:1087E00000225A600123BBE0009B1B79032B00F29F
:1087F000AB8001A252F823F009880200178802001A
:10880000A5880200C5880200009B01221A71FFF7AB
:108810002BF905909BE000238DF813300023ADF871
:1088200010302BE0BDF81020504913469B00134434
:108830009B000B441B78022B1BD1BDF810204B4929
:1088400013469B0013449B000B4400221A70012323
:108850008DF81330BDF81020444913469B00134493
:108860009B000B4404331B681846FFF715F905906D
:1088700008E0BDF810300133ADF81030BDF810300D
:10888000012BCFD99DF8133083F00103DBB2002B0D
:108890005CD0354B01221A70334B00225A6041F6EE
:1088A0001D535DE0009B00221A71314B02229A8019
:1088B0002F4B1B681946002301222E4800F0A3FD10
:1088C000059044E0009B00221A71294B1B68184652
:1088D000FFF7E2F80590284B5B88ADF80E30244B8B
:1088E0001B680293BDF80E20204913469B001344D9
:1088F0009B000B4404331B681D4A1360BDF80E2017
:108900001A4913469B0013449B000B440433029AFC
:108910001A60BDF80E20164B9888144913469B0028
:1089200013449B000B44083302461A80104B02226A
:108930009A80BDF80E200D4913469B0013449B00FE
:108940000B4400221A7002E000BF00E000BF059B4C
:10895000002B04D0044B00225A600E2300E00023B9
:10896000184607B05DF804FB04220020C422002052
:10897000EC22002000200020F422002000B587B067
:1089800001900091009B9B8A1A4613469B0013445A
:108990009B003C4A13440493019B002B07D0009B8F
:1089A000DB8819460498FFF743F8012365E0049B30
:1089B0005A68049B1B899B0013440393009B9B7D77
:1089C000062B4DD801A252F823F000BF0F8A0200F7
:1089D000338A02001B8A0200278A0200E98902000A
:1089E0003F8A0200598A0200274B00225A60009BEE
:1089F0009B69254A136025492348FFF74FF9034631
:108A000083F00103DBB2002B01D00A2335E0039988
:108A10000098FFF7EFFB059025E003990098FFF71A
:108A200007FC05901FE003990098FFF7CBFC059029
:108A300019E003990098FFF721FC059013E0009BD3
:108A400006229A75104B5B68104A12881146184628
:108A5000FFF73AFC059006E041F61D53059302E04E
:108A60000F23059300BF059B002B05D0009BDB88DF
:108A700019460498FEF7DCFF059B184607B05DF821
:108A800004FB00BFC42200200C2300201823002078
:108A900000B585B001900091019B002B01D001230E
:108AA00026E0009B1B79022B19D0022B1BDC002B2C
:108AB00002D0012B08D016E0009B02221A71009808
:108AC000FFF72CFC039012E00098FFF757FC03908F
